{
  "_format": "hh-sol-artifact-1",
  "contractName": "DatingApp",
  "sourceName": "contracts/DatingApp.sol",
  "abi": [
    {
      "inputs": [],
      "stateMutability": "nonpayable",
      "type": "constructor"
    },
    {
      "anonymous": false,
      "inputs": [
        {
          "indexed": true,
          "internalType": "address",
          "name": "user",
          "type": "address"
        }
      ],
      "name": "FlagApproved",
      "type": "event"
    },
    {
      "anonymous": false,
      "inputs": [
        {
          "indexed": true,
          "internalType": "address",
          "name": "from",
          "type": "address"
        },
        {
          "indexed": true,
          "internalType": "address",
          "name": "to",
          "type": "address"
        },
        {
          "indexed": false,
          "internalType": "bool",
          "name": "isRedFlag",
          "type": "bool"
        },
        {
          "indexed": false,
          "internalType": "string",
          "name": "review",
          "type": "string"
        }
      ],
      "name": "FlagSubmitted",
      "type": "event"
    },
    {
      "anonymous": false,
      "inputs": [
        {
          "indexed": true,
          "internalType": "address",
          "name": "user1",
          "type": "address"
        },
        {
          "indexed": true,
          "internalType": "address",
          "name": "user2",
          "type": "address"
        },
        {
          "indexed": false,
          "internalType": "bytes32",
          "name": "matchId",
          "type": "bytes32"
        }
      ],
      "name": "MatchCreated",
      "type": "event"
    },
    {
      "anonymous": false,
      "inputs": [
        {
          "indexed": true,
          "internalType": "address",
          "name": "user",
          "type": "address"
        },
        {
          "indexed": false,
          "internalType": "string",
          "name": "name",
          "type": "string"
        }
      ],
      "name": "UserRegistered",
      "type": "event"
    },
    {
      "anonymous": false,
      "inputs": [
        {
          "indexed": true,
          "internalType": "address",
          "name": "user",
          "type": "address"
        }
      ],
      "name": "UserVerified",
      "type": "event"
    },
    {
      "inputs": [
        {
          "internalType": "address",
          "name": "_from",
          "type": "address"
        }
      ],
      "name": "approveFlag",
      "outputs": [],
      "stateMutability": "nonpayable",
      "type": "function"
    },
    {
      "inputs": [
        {
          "internalType": "address",
          "name": "_user1",
          "type": "address"
        },
        {
          "internalType": "address",
          "name": "_user2",
          "type": "address"
        }
      ],
      "name": "createMatch",
      "outputs": [],
      "stateMutability": "nonpayable",
      "type": "function"
    },
    {
      "inputs": [],
      "name": "deactivateUser",
      "outputs": [],
      "stateMutability": "nonpayable",
      "type": "function"
    },
    {
      "inputs": [
        {
          "internalType": "address",
          "name": "_user",
          "type": "address"
        }
      ],
      "name": "getUserFlags",
      "outputs": [
        {
          "components": [
            {
              "internalType": "address",
              "name": "from",
              "type": "address"
            },
            {
              "internalType": "address",
              "name": "to",
              "type": "address"
            },
            {
              "internalType": "bool",
              "name": "isRedFlag",
              "type": "bool"
            },
            {
              "internalType": "string",
              "name": "review",
              "type": "string"
            },
            {
              "internalType": "uint256",
              "name": "timestamp",
              "type": "uint256"
            },
            {
              "internalType": "bool",
              "name": "isVisible",
              "type": "bool"
            }
          ],
          "internalType": "struct DatingApp.Flag[]",
          "name": "",
          "type": "tuple[]"
        }
      ],
      "stateMutability": "view",
      "type": "function"
    },
    {
      "inputs": [
        {
          "internalType": "address",
          "name": "_user",
          "type": "address"
        }
      ],
      "name": "getUserMatches",
      "outputs": [
        {
          "internalType": "address[]",
          "name": "",
          "type": "address[]"
        }
      ],
      "stateMutability": "view",
      "type": "function"
    },
    {
      "inputs": [
        {
          "internalType": "address",
          "name": "_user",
          "type": "address"
        }
      ],
      "name": "getUserProfile",
      "outputs": [
        {
          "components": [
            {
              "internalType": "string",
              "name": "name",
              "type": "string"
            },
            {
              "internalType": "uint256",
              "name": "age",
              "type": "uint256"
            },
            {
              "internalType": "string",
              "name": "bio",
              "type": "string"
            },
            {
              "internalType": "string[]",
              "name": "interests",
              "type": "string[]"
            },
            {
              "internalType": "uint256",
              "name": "monthlySalary",
              "type": "uint256"
            },
            {
              "internalType": "bool",
              "name": "isVerified",
              "type": "bool"
            },
            {
              "internalType": "bool",
              "name": "isActive",
              "type": "bool"
            },
            {
              "internalType": "uint256",
              "name": "createdAt",
              "type": "uint256"
            }
          ],
          "internalType": "struct DatingApp.User",
          "name": "",
          "type": "tuple"
        }
      ],
      "stateMutability": "view",
      "type": "function"
    },
    {
      "inputs": [
        {
          "internalType": "address",
          "name": "_user",
          "type": "address"
        }
      ],
      "name": "getVisibleFlags",
      "outputs": [
        {
          "components": [
            {
              "internalType": "address",
              "name": "from",
              "type": "address"
            },
            {
              "internalType": "address",
              "name": "to",
              "type": "address"
            },
            {
              "internalType": "bool",
              "name": "isRedFlag",
              "type": "bool"
            },
            {
              "internalType": "string",
              "name": "review",
              "type": "string"
            },
            {
              "internalType": "uint256",
              "name": "timestamp",
              "type": "uint256"
            },
            {
              "internalType": "bool",
              "name": "isVisible",
              "type": "bool"
            }
          ],
          "internalType": "struct DatingApp.Flag[]",
          "name": "",
          "type": "tuple[]"
        }
      ],
      "stateMutability": "view",
      "type": "function"
    },
    {
      "inputs": [
        {
          "internalType": "address",
          "name": "",
          "type": "address"
        }
      ],
      "name": "isRegistered",
      "outputs": [
        {
          "internalType": "bool",
          "name": "",
          "type": "bool"
        }
      ],
      "stateMutability": "view",
      "type": "function"
    },
    {
      "inputs": [
        {
          "internalType": "bytes32",
          "name": "",
          "type": "bytes32"
        }
      ],
      "name": "matches",
      "outputs": [
        {
          "internalType": "address",
          "name": "user1",
          "type": "address"
        },
        {
          "internalType": "address",
          "name": "user2",
          "type": "address"
        },
        {
          "internalType": "uint256",
          "name": "matchTime",
          "type": "uint256"
        },
        {
          "internalType": "bool",
          "name": "isActive",
          "type": "bool"
        },
        {
          "internalType": "bool",
          "name": "user1Flagged",
          "type": "bool"
        },
        {
          "internalType": "bool",
          "name": "user2Flagged",
          "type": "bool"
        },
        {
          "internalType": "string",
          "name": "user1Flag",
          "type": "string"
        },
        {
          "internalType": "string",
          "name": "user2Flag",
          "type": "string"
        },
        {
          "internalType": "bool",
          "name": "bothApproved",
          "type": "bool"
        }
      ],
      "stateMutability": "view",
      "type": "function"
    },
    {
      "inputs": [],
      "name": "owner",
      "outputs": [
        {
          "internalType": "address",
          "name": "",
          "type": "address"
        }
      ],
      "stateMutability": "view",
      "type": "function"
    },
    {
      "inputs": [],
      "name": "reactivateUser",
      "outputs": [],
      "stateMutability": "nonpayable",
      "type": "function"
    },
    {
      "inputs": [
        {
          "internalType": "string",
          "name": "_name",
          "type": "string"
        },
        {
          "internalType": "uint256",
          "name": "_age",
          "type": "uint256"
        },
        {
          "internalType": "string",
          "name": "_bio",
          "type": "string"
        },
        {
          "internalType": "string[]",
          "name": "_interests",
          "type": "string[]"
        },
        {
          "internalType": "uint256",
          "name": "_monthlySalary",
          "type": "uint256"
        }
      ],
      "name": "registerUser",
      "outputs": [],
      "stateMutability": "nonpayable",
      "type": "function"
    },
    {
      "inputs": [
        {
          "internalType": "address",
          "name": "_to",
          "type": "address"
        },
        {
          "internalType": "bool",
          "name": "_isRedFlag",
          "type": "bool"
        },
        {
          "internalType": "string",
          "name": "_review",
          "type": "string"
        }
      ],
      "name": "submitFlag",
      "outputs": [],
      "stateMutability": "nonpayable",
      "type": "function"
    },
    {
      "inputs": [],
      "name": "totalMatches",
      "outputs": [
        {
          "internalType": "uint256",
          "name": "",
          "type": "uint256"
        }
      ],
      "stateMutability": "view",
      "type": "function"
    },
    {
      "inputs": [],
      "name": "totalUsers",
      "outputs": [
        {
          "internalType": "uint256",
          "name": "",
          "type": "uint256"
        }
      ],
      "stateMutability": "view",
      "type": "function"
    },
    {
      "inputs": [
        {
          "internalType": "string",
          "name": "_bio",
          "type": "string"
        },
        {
          "internalType": "string[]",
          "name": "_interests",
          "type": "string[]"
        }
      ],
      "name": "updateProfile",
      "outputs": [],
      "stateMutability": "nonpayable",
      "type": "function"
    },
    {
      "inputs": [
        {
          "internalType": "address",
          "name": "",
          "type": "address"
        },
        {
          "internalType": "uint256",
          "name": "",
          "type": "uint256"
        }
      ],
      "name": "userFlags",
      "outputs": [
        {
          "internalType": "address",
          "name": "from",
          "type": "address"
        },
        {
          "internalType": "address",
          "name": "to",
          "type": "address"
        },
        {
          "internalType": "bool",
          "name": "isRedFlag",
          "type": "bool"
        },
        {
          "internalType": "string",
          "name": "review",
          "type": "string"
        },
        {
          "internalType": "uint256",
          "name": "timestamp",
          "type": "uint256"
        },
        {
          "internalType": "bool",
          "name": "isVisible",
          "type": "bool"
        }
      ],
      "stateMutability": "view",
      "type": "function"
    },
    {
      "inputs": [
        {
          "internalType": "address",
          "name": "",
          "type": "address"
        },
        {
          "internalType": "uint256",
          "name": "",
          "type": "uint256"
        }
      ],
      "name": "userMatches",
      "outputs": [
        {
          "internalType": "address",
          "name": "",
          "type": "address"
        }
      ],
      "stateMutability": "view",
      "type": "function"
    },
    {
      "inputs": [
        {
          "internalType": "address",
          "name": "",
          "type": "address"
        }
      ],
      "name": "users",
      "outputs": [
        {
          "internalType": "string",
          "name": "name",
          "type": "string"
        },
        {
          "internalType": "uint256",
          "name": "age",
          "type": "uint256"
        },
        {
          "internalType": "string",
          "name": "bio",
          "type": "string"
        },
        {
          "internalType": "uint256",
          "name": "monthlySalary",
          "type": "uint256"
        },
        {
          "internalType": "bool",
          "name": "isVerified",
          "type": "bool"
        },
        {
          "internalType": "bool",
          "name": "isActive",
          "type": "bool"
        },
        {
          "internalType": "uint256",
          "name": "createdAt",
          "type": "uint256"
        }
      ],
      "stateMutability": "view",
      "type": "function"
    },
    {
      "inputs": [
        {
          "internalType": "address",
          "name": "_user",
          "type": "address"
        }
      ],
      "name": "verifyUser",
      "outputs": [],
      "stateMutability": "nonpayable",
      "type": "function"
    }
  ],
  "bytecode": "0x608060405234801561001057600080fd5b50600580546001600160a01b031916331790556126f6806100326000396000f3fe608060405234801561001057600080fd5b506004361061012c5760003560e01c8063987ee156116100ad578063bff1f9e111610071578063bff1f9e1146102af578063c3c5a547146102b8578063ccbd6490146102eb578063d78611b81461030b578063fd7fef9c1461031e57600080fd5b8063987ee1561461021b5780639d2589101461023b5780639e1224d91461024e5780639fe9ada314610261578063a87430ba1461028957600080fd5b806355ea2000116100f457806355ea2000146101ba578063752ab23f146101c25780637cb464eb146101d55780638da5cb5b146101e85780638e67e7c01461021357600080fd5b80631e20530a146101315780632a5b1451146101465780632b787417146101625780633e944bae146101875780634d813120146101a7575b600080fd5b61014461013f366004611dea565b610331565b005b61014f60075481565b6040519081526020015b60405180910390f35b610175610170366004611e1d565b610708565b60405161015996959493929190611e8d565b61019a610195366004611edb565b6107fc565b6040516101599190611efd565b6101446101b5366004611edb565b610ae5565b610144610b96565b6101446101d0366004611edb565b610be2565b61019a6101e3366004611edb565b610d6a565b6005546101fb906001600160a01b031681565b6040516001600160a01b039091168152602001610159565b610144610ec8565b61022e610229366004611edb565b610f18565b6040516101599190612005565b610144610249366004612163565b6111c8565b61014461025c366004612267565b61156b565b61027461026f366004612301565b611893565b6040516101599998979695949392919061231a565b61029c610297366004611edb565b611a09565b6040516101599796959493929190612394565b61014f60065481565b6102db6102c6366004611edb565b60046020526000908152604090205460ff1681565b6040519015158152602001610159565b6102fe6102f9366004611edb565b611b5d565b60405161015991906123e6565b610144610319366004612433565b611bd3565b6101fb61032c366004611e1d565b611cd1565b6005546001600160a01b031633146103645760405162461bcd60e51b815260040161035b90612497565b60405180910390fd5b6001600160a01b03821660009081526004602052604090205460ff1680156103a457506001600160a01b03811660009081526004602052604090205460ff165b6103e75760405162461bcd60e51b8152602060048201526014602482015273155cd95c9cc81b9bdd081c9959da5cdd195c995960621b604482015260640161035b565b6001600160a01b03821660009081526020819052604090206005015460ff16801561042d57506001600160a01b03811660009081526020819052604090206005015460ff165b61046e5760405162461bcd60e51b8152602060048201526012602482015271155cd95c9cc81b9bdd081d995c9a599a595960721b604482015260640161035b565b806001600160a01b0316826001600160a01b0316036104cf5760405162461bcd60e51b815260206004820152601a60248201527f43616e6e6f74206d61746368207769746820796f757273656c66000000000000604482015260640161035b565b6040516bffffffffffffffffffffffff19606084811b8216602084015283901b16603482015242604882015260009060680160408051601f198184030181528282528051602091820120610120840183526001600160a01b03808816855286811685840190815242868601908152600160608801818152600060808a0181815260a08b018281528a51808b018c5283815260c08d019081528b51808c018d5284815260e08e0152610100808e018590528a855260029b8c90529b9093208c518154908a166001600160a01b0319918216178255975195810180549690991695909716949094179096559251968401969096559451600383018054945196511515620100000262ff00001997151590980261ff00199215159290921661ffff19909516949094171794909416949094179055905190935060048201906106149082612560565b5060e082015160058201906106299082612560565b5061010091909101516006909101805491151560ff199092169190911790556001600160a01b038084166000818152600160208181526040808420805480850182559085528285200180549689166001600160a01b0319978816811790915584528320805492830181558352822001805490931690911790915560078054916106b183612620565b9190505550816001600160a01b0316836001600160a01b03167f7feccad6838fcc5f7729c6494d6993dda844aa3c4422758de9d67689a017213b836040516106fb91815260200190565b60405180910390a3505050565b6003602052816000526040600020818154811061072457600080fd5b60009182526020909120600590910201805460018201546002830180546001600160a01b0393841696509282169450600160a01b90910460ff169291610769906124d8565b80601f0160208091040260200160405190810160405280929190818152602001828054610795906124d8565b80156107e25780601f106107b7576101008083540402835291602001916107e2565b820191906000526020600020905b8154815290600101906020018083116107c557829003601f168201915b50505050600383015460049093015491929160ff16905086565b60606000805b6001600160a01b038416600090815260036020526040902054811015610888576001600160a01b038416600090815260036020526040902080548290811061084c5761084c612647565b600091825260209091206004600590920201015460ff1615610876578161087281612620565b9250505b8061088081612620565b915050610802565b5060008167ffffffffffffffff8111156108a4576108a46120ac565b60405190808252806020026020018201604052801561090357816020015b6040805160c081018252600080825260208083018290529282018190526060808301526080820181905260a082015282526000199092019101816108c25790505b5090506000805b6001600160a01b038616600090815260036020526040902054811015610adb576001600160a01b038616600090815260036020526040902080548290811061095457610954612647565b600091825260209091206004600590920201015460ff1615610ac9576001600160a01b038616600090815260036020526040902080548290811061099a5761099a612647565b60009182526020918290206040805160c08101825260059390930290910180546001600160a01b039081168452600182015490811694840194909452600160a01b90930460ff161515908201526002820180549192916060840191906109ff906124d8565b80601f0160208091040260200160405190810160405280929190818152602001828054610a2b906124d8565b8015610a785780601f10610a4d57610100808354040283529160200191610a78565b820191906000526020600020905b815481529060010190602001808311610a5b57829003601f168201915b50505091835250506003820154602082015260049091015460ff1615156040909101528351849084908110610aaf57610aaf612647565b60200260200101819052508180610ac590612620565b9250505b80610ad381612620565b91505061090a565b5090949350505050565b6005546001600160a01b03163314610b0f5760405162461bcd60e51b815260040161035b90612497565b6001600160a01b03811660009081526004602052604090205460ff16610b475760405162461bcd60e51b815260040161035b9061265d565b6001600160a01b038116600081815260208190526040808220600501805460ff19166001179055517fa6625d2d26e786e2f473111bea4b2fcdbbf1863d883a2359989ce3a103d2972a9190a250565b3360009081526004602052604090205460ff16610bc55760405162461bcd60e51b815260040161035b9061265d565b336000908152602081905260409020600501805461ff0019169055565b3360009081526020819052604090206005015460ff16610c385760405162461bcd60e51b8152602060048201526011602482015270155cd95c881b9bdd081d995c9a599a5959607a1b604482015260640161035b565b60005b33600090815260036020526040902054811015610d665733600090815260036020526040902080546001600160a01b038416919083908110610c7f57610c7f612647565b60009182526020909120600590910201546001600160a01b0316148015610cdb5750336000908152600360205260409020805482908110610cc257610cc2612647565b600091825260209091206004600590920201015460ff16155b15610d545733600090815260036020526040902080546001919083908110610d0557610d05612647565b60009182526020822060059190910201600401805460ff19169215159290921790915560405133917fccfd09644bb5b86167ce304fefafdf42f21e35b9057f6fc7cb6a6149eb4dc58791a25050565b80610d5e81612620565b915050610c3b565b5050565b6001600160a01b0381166000908152600360209081526040808320805482518185028101850190935280835260609492939192909184015b82821015610ebd5760008481526020908190206040805160c0810182526005860290920180546001600160a01b039081168452600182015490811694840194909452600160a01b90930460ff16151590820152600282018054919291606084019190610e0d906124d8565b80601f0160208091040260200160405190810160405280929190818152602001828054610e39906124d8565b8015610e865780601f10610e5b57610100808354040283529160200191610e86565b820191906000526020600020905b815481529060010190602001808311610e6957829003601f168201915b5050509183525050600382015460208083019190915260049092015460ff1615156040909101529082526001929092019101610da2565b505050509050919050565b3360009081526004602052604090205460ff16610ef75760405162461bcd60e51b815260040161035b9061265d565b336000908152602081905260409020600501805461ff001916610100179055565b610f646040518061010001604052806060815260200160008152602001606081526020016060815260200160008152602001600015158152602001600015158152602001600081525090565b6001600160a01b0382166000908152602081905260409081902081516101008101909252805482908290610f97906124d8565b80601f0160208091040260200160405190810160405280929190818152602001828054610fc3906124d8565b80156110105780601f10610fe557610100808354040283529160200191611010565b820191906000526020600020905b815481529060010190602001808311610ff357829003601f168201915b5050505050815260200160018201548152602001600282018054611033906124d8565b80601f016020809104026020016040519081016040528092919081815260200182805461105f906124d8565b80156110ac5780601f10611081576101008083540402835291602001916110ac565b820191906000526020600020905b81548152906001019060200180831161108f57829003601f168201915b5050505050815260200160038201805480602002602001604051908101604052809291908181526020016000905b828210156111865783829060005260206000200180546110f9906124d8565b80601f0160208091040260200160405190810160405280929190818152602001828054611125906124d8565b80156111725780601f1061114757610100808354040283529160200191611172565b820191906000526020600020905b81548152906001019060200180831161115557829003601f168201915b5050505050815260200190600101906110da565b5050509082525060048201546020820152600582015460ff80821615156040840152610100909104161515606082015260069091015460809091015292915050565b3360009081526020819052604090206005015460ff1661121e5760405162461bcd60e51b8152602060048201526011602482015270155cd95c881b9bdd081d995c9a599a5959607a1b604482015260640161035b565b6001600160a01b03831660009081526004602052604090205460ff166112865760405162461bcd60e51b815260206004820152601a60248201527f5461726765742075736572206e6f742072656769737465726564000000000000604482015260640161035b565b6001600160a01b03831633036112d55760405162461bcd60e51b815260206004820152601460248201527321b0b73737ba10333630b3903cb7bab939b2b63360611b604482015260640161035b565b6064815111156113195760405162461bcd60e51b815260206004820152600f60248201526e52657669657720746f6f206c6f6e6760881b604482015260640161035b565b60008151116113635760405162461bcd60e51b81526020600482015260166024820152755265766965772063616e6e6f7420626520656d70747960501b604482015260640161035b565b6000805b336000908152600160205260409020548110156113e05733600090815260016020526040902080546001600160a01b0387169190839081106113ab576113ab612647565b6000918252602090912001546001600160a01b0316036113ce57600191506113e0565b806113d881612620565b915050611367565b50806114405760405162461bcd60e51b815260206004820152602960248201527f43616e206f6e6c7920666c616720757365727320796f752068617665206d61746044820152680c6d0cac840eed2e8d60bb1b606482015260840161035b565b6040805160c0810182523381526001600160a01b03868116602080840182815288151585870190815260608601898152426080880152600060a088018190529485526003845296842080546001808201835591865293909420865160059094020180546001600160a01b031916938616939093178355905192820180549151939094166001600160a81b031990911617600160a01b921515929092029190911790915591519091829160028201906114f89082612560565b506080820151600382015560a0909101516004909101805460ff19169115159190911790556040516001600160a01b0386169033907f9ba88d306a37fd98818ac121dcedf7652e9b4c3c0057043f8e51738279116d629061155c908890889061268a565b60405180910390a35050505050565b3360009081526004602052604090205460ff16156115cb5760405162461bcd60e51b815260206004820152601760248201527f5573657220616c72656164792072656769737465726564000000000000000000604482015260640161035b565b60128410156116125760405162461bcd60e51b815260206004820152601360248201527226bab9ba10313290189c1037b91037b63232b960691b604482015260640161035b565b600085511161165a5760405162461bcd60e51b81526020600482015260146024820152734e616d652063616e6e6f7420626520656d70747960601b604482015260640161035b565b6101f48351111561169c5760405162461bcd60e51b815260206004820152600c60248201526b42696f20746f6f206c6f6e6760a01b604482015260640161035b565b600a825111156116e35760405162461bcd60e51b8152602060048201526012602482015271546f6f206d616e7920696e7465726573747360701b604482015260640161035b565b600081116117415760405162461bcd60e51b815260206004820152602560248201527f4d6f6e74686c792073616c617279206d75737420626520677265617465722074604482015264068616e20360dc1b606482015260840161035b565b604080516101008101825286815260208082018790528183018690526060820185905260808201849052600060a08301819052600160c08401524260e084015233815290819052919091208151819061179a9082612560565b5060208201516001820155604082015160028201906117b99082612560565b50606082015180516117d5916003840191602090910190611d09565b50608082015160048083019190915560a083015160058301805460c086015115156101000261ff00199315159390931661ffff199091161791909117905560e09092015160069182015533600090815260209290925260408220805460ff1916600117905580549161184683612620565b9190505550336001600160a01b03167f48cac28ad4dc618e15f4c2dd5e97751182f166de97b25618318b2112aa951a2f8660405161188491906126ad565b60405180910390a25050505050565b6002602081905260009182526040909120805460018201549282015460038301546004840180546001600160a01b039485169690941694929360ff8084169461010085048216946201000090049091169290916118ef906124d8565b80601f016020809104026020016040519081016040528092919081815260200182805461191b906124d8565b80156119685780601f1061193d57610100808354040283529160200191611968565b820191906000526020600020905b81548152906001019060200180831161194b57829003601f168201915b50505050509080600501805461197d906124d8565b80601f01602080910402602001604051908101604052809291908181526020018280546119a9906124d8565b80156119f65780601f106119cb576101008083540402835291602001916119f6565b820191906000526020600020905b8154815290600101906020018083116119d957829003601f168201915b5050506006909301549192505060ff1689565b600060208190529081526040902080548190611a24906124d8565b80601f0160208091040260200160405190810160405280929190818152602001828054611a50906124d8565b8015611a9d5780601f10611a7257610100808354040283529160200191611a9d565b820191906000526020600020905b815481529060010190602001808311611a8057829003601f168201915b505050505090806001015490806002018054611ab8906124d8565b80601f0160208091040260200160405190810160405280929190818152602001828054611ae4906124d8565b8015611b315780601f10611b0657610100808354040283529160200191611b31565b820191906000526020600020905b815481529060010190602001808311611b1457829003601f168201915b505050600484015460058501546006909501549394909360ff8083169450610100909204909116915087565b6001600160a01b038116600090815260016020908152604091829020805483518184028101840190945280845260609392830182828015611bc757602002820191906000526020600020905b81546001600160a01b03168152600190910190602001808311611ba9575b50505050509050919050565b3360009081526004602052604090205460ff16611c025760405162461bcd60e51b815260040161035b9061265d565b6101f482511115611c445760405162461bcd60e51b815260206004820152600c60248201526b42696f20746f6f206c6f6e6760a01b604482015260640161035b565b600a81511115611c8b5760405162461bcd60e51b8152602060048201526012602482015271546f6f206d616e7920696e7465726573747360701b604482015260640161035b565b336000908152602081905260409020600201611ca78382612560565b50336000908152602081815260409091208251611ccc92600390920191840190611d09565b505050565b60016020528160005260406000208181548110611ced57600080fd5b6000918252602090912001546001600160a01b03169150829050565b828054828255906000526020600020908101928215611d4f579160200282015b82811115611d4f5782518290611d3f9082612560565b5091602001919060010190611d29565b50611d5b929150611d5f565b5090565b80821115611d5b576000611d738282611d7c565b50600101611d5f565b508054611d88906124d8565b6000825580601f10611d98575050565b601f016020900490600052602060002090810190611db69190611db9565b50565b5b80821115611d5b5760008155600101611dba565b80356001600160a01b0381168114611de557600080fd5b919050565b60008060408385031215611dfd57600080fd5b611e0683611dce565b9150611e1460208401611dce565b90509250929050565b60008060408385031215611e3057600080fd5b611e3983611dce565b946020939093013593505050565b6000815180845260005b81811015611e6d57602081850181015186830182015201611e51565b506000602082860101526020601f19601f83011685010191505092915050565b6001600160a01b03878116825286166020820152841515604082015260c060608201819052600090611ec190830186611e47565b60808301949094525090151560a090910152949350505050565b600060208284031215611eed57600080fd5b611ef682611dce565b9392505050565b60006020808301818452808551808352604092508286019150828160051b87010184880160005b83811015611fa257888303603f19018552815180516001600160a01b0390811685528882015116888501528681015115158785015260608082015160c08287018190529190611f7583880182611e47565b6080858101519089015260a094850151151594909701939093525050509386019390860190600101611f24565b509098975050505050505050565b600081518084526020808501808196508360051b8101915082860160005b85811015611ff8578284038952611fe6848351611e47565b98850198935090840190600101611fce565b5091979650505050505050565b6020815260008251610100806020850152612024610120850183611e47565b9150602085015160408501526040850151601f198086850301606087015261204c8483611e47565b935060608701519150808685030160808701525061206a8382611fb0565b925050608085015160a085015260a085015161208a60c086018215159052565b5060c085015180151560e08601525060e0949094015192909301919091525090565b634e487b7160e01b600052604160045260246000fd5b604051601f8201601f1916810167ffffffffffffffff811182821017156120eb576120eb6120ac565b604052919050565b600082601f83011261210457600080fd5b813567ffffffffffffffff81111561211e5761211e6120ac565b612131601f8201601f19166020016120c2565b81815284602083860101111561214657600080fd5b816020850160208301376000918101602001919091529392505050565b60008060006060848603121561217857600080fd5b61218184611dce565b92506020840135801515811461219657600080fd5b9150604084013567ffffffffffffffff8111156121b257600080fd5b6121be868287016120f3565b9150509250925092565b600082601f8301126121d957600080fd5b8135602067ffffffffffffffff808311156121f6576121f66120ac565b8260051b6122058382016120c2565b938452858101830193838101908886111561221f57600080fd5b84880192505b8583101561225b5782358481111561223d5760008081fd5b61224b8a87838c01016120f3565b8352509184019190840190612225565b98975050505050505050565b600080600080600060a0868803121561227f57600080fd5b853567ffffffffffffffff8082111561229757600080fd5b6122a389838a016120f3565b96506020880135955060408801359150808211156122c057600080fd5b6122cc89838a016120f3565b945060608801359150808211156122e257600080fd5b506122ef888289016121c8565b95989497509295608001359392505050565b60006020828403121561231357600080fd5b5035919050565b6001600160a01b038a8116825289166020820152604081018890528615156060820152851515608082015284151560a082015261012060c0820181905260009061236683820187611e47565b905082810360e084015261237a8186611e47565b9150508215156101008301529a9950505050505050505050565b60e0815260006123a760e083018a611e47565b88602084015282810360408401526123bf8189611e47565b60608401979097525050921515608084015290151560a083015260c0909101529392505050565b6020808252825182820181905260009190848201906040850190845b818110156124275783516001600160a01b031683529284019291840191600101612402565b50909695505050505050565b6000806040838503121561244657600080fd5b823567ffffffffffffffff8082111561245e57600080fd5b61246a868387016120f3565b9350602085013591508082111561248057600080fd5b5061248d858286016121c8565b9150509250929050565b60208082526021908201527f4f6e6c79206f776e65722063616e2063616c6c20746869732066756e6374696f6040820152603760f91b606082015260800190565b600181811c908216806124ec57607f821691505b60208210810361250c57634e487b7160e01b600052602260045260246000fd5b50919050565b601f821115611ccc57600081815260208120601f850160051c810160208610156125395750805b601f850160051c820191505b8181101561255857828155600101612545565b505050505050565b815167ffffffffffffffff81111561257a5761257a6120ac565b61258e8161258884546124d8565b84612512565b602080601f8311600181146125c357600084156125ab5750858301515b600019600386901b1c1916600185901b178555612558565b600085815260208120601f198616915b828110156125f2578886015182559484019460019091019084016125d3565b50858210156126105787850151600019600388901b60f8161c191681555b5050505050600190811b01905550565b60006001820161264057634e487b7160e01b600052601160045260246000fd5b5060010190565b634e487b7160e01b600052603260045260246000fd5b602080825260139082015272155cd95c881b9bdd081c9959da5cdd195c9959606a1b604082015260600190565b82151581526040602082015260006126a56040830184611e47565b949350505050565b602081526000611ef66020830184611e4756fea26469706673582212209c91303ee6f4d6fc91d41ccc45232463dd3d4bfacc8cd191e7f6aaaa938156c264736f6c63430008130033",
  "linkReferences": {},
  "deployedLinkReferences": {}
}