{
  "_format": "hh-sol-artifact-1",
  "contractName": "KYCProfile",
  "sourceName": "contracts/KYCProfile.sol",
  "abi": [
    {
      "inputs": [],
      "stateMutability": "nonpayable",
      "type": "constructor"
    },
    {
      "anonymous": false,
      "inputs": [
        {
          "indexed": true,
          "internalType": "address",
          "name": "user",
          "type": "address"
        },
        {
          "indexed": true,
          "internalType": "address",
          "name": "verifier",
          "type": "address"
        },
        {
          "indexed": false,
          "internalType": "uint256",
          "name": "timestamp",
          "type": "uint256"
        }
      ],
      "name": "KYCVerified",
      "type": "event"
    },
    {
      "anonymous": false,
      "inputs": [
        {
          "indexed": true,
          "internalType": "address",
          "name": "user",
          "type": "address"
        },
        {
          "indexed": false,
          "internalType": "string",
          "name": "username",
          "type": "string"
        },
        {
          "indexed": false,
          "internalType": "uint256",
          "name": "timestamp",
          "type": "uint256"
        }
      ],
      "name": "ProfileCreated",
      "type": "event"
    },
    {
      "anonymous": false,
      "inputs": [
        {
          "indexed": true,
          "internalType": "address",
          "name": "user",
          "type": "address"
        },
        {
          "indexed": false,
          "internalType": "uint256",
          "name": "timestamp",
          "type": "uint256"
        }
      ],
      "name": "ProfileUpdated",
      "type": "event"
    },
    {
      "anonymous": false,
      "inputs": [
        {
          "indexed": true,
          "internalType": "address",
          "name": "user",
          "type": "address"
        },
        {
          "indexed": true,
          "internalType": "address",
          "name": "viewer",
          "type": "address"
        },
        {
          "indexed": false,
          "internalType": "uint256",
          "name": "timestamp",
          "type": "uint256"
        }
      ],
      "name": "ViewerAuthorized",
      "type": "event"
    },
    {
      "anonymous": false,
      "inputs": [
        {
          "indexed": true,
          "internalType": "address",
          "name": "user",
          "type": "address"
        },
        {
          "indexed": true,
          "internalType": "address",
          "name": "viewer",
          "type": "address"
        },
        {
          "indexed": false,
          "internalType": "uint256",
          "name": "timestamp",
          "type": "uint256"
        }
      ],
      "name": "ViewerRevoked",
      "type": "event"
    },
    {
      "inputs": [
        {
          "internalType": "address",
          "name": "_verifier",
          "type": "address"
        }
      ],
      "name": "addAuthorizedVerifier",
      "outputs": [],
      "stateMutability": "nonpayable",
      "type": "function"
    },
    {
      "inputs": [
        {
          "internalType": "address",
          "name": "_viewer",
          "type": "address"
        }
      ],
      "name": "authorizeViewer",
      "outputs": [],
      "stateMutability": "nonpayable",
      "type": "function"
    },
    {
      "inputs": [
        {
          "internalType": "address",
          "name": "",
          "type": "address"
        }
      ],
      "name": "authorizedVerifiers",
      "outputs": [
        {
          "internalType": "bool",
          "name": "",
          "type": "bool"
        }
      ],
      "stateMutability": "view",
      "type": "function"
    },
    {
      "inputs": [
        {
          "internalType": "address",
          "name": "_user",
          "type": "address"
        },
        {
          "internalType": "string",
          "name": "_username",
          "type": "string"
        },
        {
          "internalType": "uint256",
          "name": "_age",
          "type": "uint256"
        },
        {
          "internalType": "string",
          "name": "_gender",
          "type": "string"
        },
        {
          "internalType": "string",
          "name": "_fullName",
          "type": "string"
        },
        {
          "internalType": "string",
          "name": "_bio",
          "type": "string"
        },
        {
          "internalType": "string[]",
          "name": "_interests",
          "type": "string[]"
        },
        {
          "internalType": "uint256",
          "name": "_monthlySalary",
          "type": "uint256"
        },
        {
          "internalType": "string",
          "name": "_profileImageHash",
          "type": "string"
        }
      ],
      "name": "createProfile",
      "outputs": [],
      "stateMutability": "nonpayable",
      "type": "function"
    },
    {
      "inputs": [],
      "name": "deactivateProfile",
      "outputs": [],
      "stateMutability": "nonpayable",
      "type": "function"
    },
    {
      "inputs": [
        {
          "internalType": "address",
          "name": "_user",
          "type": "address"
        }
      ],
      "name": "emergencyDeactivateUser",
      "outputs": [],
      "stateMutability": "nonpayable",
      "type": "function"
    },
    {
      "inputs": [
        {
          "internalType": "address",
          "name": "_user",
          "type": "address"
        }
      ],
      "name": "getKYCData",
      "outputs": [
        {
          "internalType": "string",
          "name": "documentType",
          "type": "string"
        },
        {
          "internalType": "string",
          "name": "verificationProvider",
          "type": "string"
        },
        {
          "internalType": "uint256",
          "name": "verificationTimestamp",
          "type": "uint256"
        },
        {
          "internalType": "bool",
          "name": "isVerified",
          "type": "bool"
        }
      ],
      "stateMutability": "view",
      "type": "function"
    },
    {
      "inputs": [
        {
          "internalType": "address",
          "name": "_user",
          "type": "address"
        }
      ],
      "name": "getPrivateProfile",
      "outputs": [
        {
          "internalType": "string",
          "name": "fullName",
          "type": "string"
        },
        {
          "internalType": "string",
          "name": "bio",
          "type": "string"
        },
        {
          "internalType": "string[]",
          "name": "interests",
          "type": "string[]"
        },
        {
          "internalType": "uint256",
          "name": "monthlySalary",
          "type": "uint256"
        },
        {
          "internalType": "string",
          "name": "profileImageHash",
          "type": "string"
        }
      ],
      "stateMutability": "view",
      "type": "function"
    },
    {
      "inputs": [
        {
          "internalType": "address",
          "name": "_user",
          "type": "address"
        }
      ],
      "name": "getPublicProfile",
      "outputs": [
        {
          "internalType": "string",
          "name": "username",
          "type": "string"
        },
        {
          "internalType": "uint256",
          "name": "age",
          "type": "uint256"
        },
        {
          "internalType": "string",
          "name": "gender",
          "type": "string"
        },
        {
          "internalType": "bool",
          "name": "isKYCVerified",
          "type": "bool"
        },
        {
          "internalType": "bool",
          "name": "isActive",
          "type": "bool"
        },
        {
          "internalType": "uint256",
          "name": "createdAt",
          "type": "uint256"
        }
      ],
      "stateMutability": "view",
      "type": "function"
    },
    {
      "inputs": [],
      "name": "getTotalUsers",
      "outputs": [
        {
          "internalType": "uint256",
          "name": "",
          "type": "uint256"
        }
      ],
      "stateMutability": "view",
      "type": "function"
    },
    {
      "inputs": [
        {
          "internalType": "uint256",
          "name": "_start",
          "type": "uint256"
        },
        {
          "internalType": "uint256",
          "name": "_limit",
          "type": "uint256"
        }
      ],
      "name": "getUsers",
      "outputs": [
        {
          "internalType": "address[]",
          "name": "addresses",
          "type": "address[]"
        },
        {
          "internalType": "string[]",
          "name": "usernames",
          "type": "string[]"
        },
        {
          "internalType": "bool[]",
          "name": "kycStatuses",
          "type": "bool[]"
        },
        {
          "internalType": "bool[]",
          "name": "activeStatuses",
          "type": "bool[]"
        }
      ],
      "stateMutability": "view",
      "type": "function"
    },
    {
      "inputs": [
        {
          "internalType": "uint256",
          "name": "_start",
          "type": "uint256"
        },
        {
          "internalType": "uint256",
          "name": "_limit",
          "type": "uint256"
        }
      ],
      "name": "getVerifiedActiveUsers",
      "outputs": [
        {
          "internalType": "address[]",
          "name": "addresses",
          "type": "address[]"
        },
        {
          "internalType": "string[]",
          "name": "usernames",
          "type": "string[]"
        }
      ],
      "stateMutability": "view",
      "type": "function"
    },
    {
      "inputs": [
        {
          "internalType": "address",
          "name": "_user",
          "type": "address"
        },
        {
          "internalType": "address",
          "name": "_viewer",
          "type": "address"
        }
      ],
      "name": "isAuthorizedViewer",
      "outputs": [
        {
          "internalType": "bool",
          "name": "",
          "type": "bool"
        }
      ],
      "stateMutability": "view",
      "type": "function"
    },
    {
      "inputs": [
        {
          "internalType": "address",
          "name": "",
          "type": "address"
        }
      ],
      "name": "isRegistered",
      "outputs": [
        {
          "internalType": "bool",
          "name": "",
          "type": "bool"
        }
      ],
      "stateMutability": "view",
      "type": "function"
    },
    {
      "inputs": [
        {
          "internalType": "address",
          "name": "_user",
          "type": "address"
        }
      ],
      "name": "isUserActiveAndVerified",
      "outputs": [
        {
          "internalType": "bool",
          "name": "",
          "type": "bool"
        }
      ],
      "stateMutability": "view",
      "type": "function"
    },
    {
      "inputs": [],
      "name": "owner",
      "outputs": [
        {
          "internalType": "address",
          "name": "",
          "type": "address"
        }
      ],
      "stateMutability": "view",
      "type": "function"
    },
    {
      "inputs": [
        {
          "internalType": "address",
          "name": "",
          "type": "address"
        }
      ],
      "name": "publicProfiles",
      "outputs": [
        {
          "internalType": "string",
          "name": "username",
          "type": "string"
        },
        {
          "internalType": "uint256",
          "name": "age",
          "type": "uint256"
        },
        {
          "internalType": "string",
          "name": "gender",
          "type": "string"
        },
        {
          "internalType": "bool",
          "name": "isKYCVerified",
          "type": "bool"
        },
        {
          "internalType": "bool",
          "name": "isActive",
          "type": "bool"
        },
        {
          "internalType": "uint256",
          "name": "createdAt",
          "type": "uint256"
        }
      ],
      "stateMutability": "view",
      "type": "function"
    },
    {
      "inputs": [],
      "name": "reactivateProfile",
      "outputs": [],
      "stateMutability": "nonpayable",
      "type": "function"
    },
    {
      "inputs": [
        {
          "internalType": "uint256",
          "name": "",
          "type": "uint256"
        }
      ],
      "name": "registeredUsers",
      "outputs": [
        {
          "internalType": "address",
          "name": "",
          "type": "address"
        }
      ],
      "stateMutability": "view",
      "type": "function"
    },
    {
      "inputs": [
        {
          "internalType": "address",
          "name": "_verifier",
          "type": "address"
        }
      ],
      "name": "removeAuthorizedVerifier",
      "outputs": [],
      "stateMutability": "nonpayable",
      "type": "function"
    },
    {
      "inputs": [
        {
          "internalType": "address",
          "name": "_viewer",
          "type": "address"
        }
      ],
      "name": "revokeViewer",
      "outputs": [],
      "stateMutability": "nonpayable",
      "type": "function"
    },
    {
      "inputs": [
        {
          "internalType": "string",
          "name": "_bio",
          "type": "string"
        },
        {
          "internalType": "string[]",
          "name": "_interests",
          "type": "string[]"
        },
        {
          "internalType": "string",
          "name": "_profileImageHash",
          "type": "string"
        }
      ],
      "name": "updateProfile",
      "outputs": [],
      "stateMutability": "nonpayable",
      "type": "function"
    },
    {
      "inputs": [
        {
          "internalType": "address",
          "name": "_user",
          "type": "address"
        },
        {
          "internalType": "string",
          "name": "_documentType",
          "type": "string"
        },
        {
          "internalType": "string",
          "name": "_encryptedDocumentNumber",
          "type": "string"
        },
        {
          "internalType": "string",
          "name": "_kycDocumentHash",
          "type": "string"
        },
        {
          "internalType": "string",
          "name": "_verificationProvider",
          "type": "string"
        }
      ],
      "name": "verifyKYC",
      "outputs": [],
      "stateMutability": "nonpayable",
      "type": "function"
    }
  ],
  "bytecode": "0x608060405234801561001057600080fd5b50600780546001600160a01b031916339081179091556000908152600660205260409020805460ff19166001179055612b1b8061004e6000396000f3fe608060405234801561001057600080fd5b506004361061014d5760003560e01c806387d3701a116100c3578063ab47a2f91161007c578063ab47a2f9146102ec578063ac0c087a1461030f578063b376831914610322578063c3c5a54714610335578063c77304ce14610358578063dc893a301461037c57600080fd5b806387d3701a1461026c5780638da5cb5b1461027f5780638eaf308c146102925780639a891716146102a55780639be572f6146102c8578063a65a2c3e146102d957600080fd5b806357a1c5e91161011557806357a1c5e9146101db5780636e607fa7146101ee578063700d23b8146102015780637259e0f81461022657806375db7721146102515780638701cc271461025957600080fd5b806320a17bca146101525780632102fc5e1461015c578063388edb2c1461016f5780633a1723b41461019757806345982a66146101b8575b600080fd5b61015a61038f565b005b61015a61016a3660046121a8565b6103e4565b61018261017d3660046121ca565b61046b565b60405190151581526020015b60405180910390f35b6101aa6101a53660046121fd565b61049b565b60405161018e929190612301565b6101cb6101c63660046121fd565b6107e9565b60405161018e9493929190612361565b6101826101e93660046121a8565b610b61565b61015a6101fc3660046121a8565b610bd2565b61021461020f3660046121a8565b610c20565b60405161018e969594939291906123b9565b610239610234366004612403565b610e15565b6040516001600160a01b03909116815260200161018e565b61015a610e3f565b61015a6102673660046121a8565b610e8f565b61015a61027a36600461256f565b610fcc565b600754610239906001600160a01b031681565b61015a6102a03660046125f6565b6110e6565b6101826102b33660046121a8565b60066020526000908152604090205460ff1681565b60055460405190815260200161018e565b61015a6102e73660046121a8565b611506565b6102ff6102fa3660046121a8565b6115af565b60405161018e9493929190612710565b61015a61031d3660046121a8565b61186c565b61015a61033036600461274e565b6118f8565b6101826103433660046121a8565b60036020526000908152604090205460ff1681565b61036b6103663660046121a8565b611ac7565b60405161018e95949392919061280b565b61021461038a3660046121a8565b611f7c565b3360009081526003602052604090205460ff166103c75760405162461bcd60e51b81526004016103be9061285e565b60405180910390fd5b336000908152602081905260409020600301805461ff0019169055565b6007546001600160a01b0316331461040e5760405162461bcd60e51b81526004016103be9061288b565b6001600160a01b03811660009081526003602052604090205460ff166104465760405162461bcd60e51b81526004016103be9061285e565b6001600160a01b03166000908152602081905260409020600301805461ff0019169055565b6001600160a01b0380831660009081526004602090815260408083209385168352929052205460ff165b92915050565b600554606090819084106104ed5760405162461bcd60e51b8152602060048201526019602482015278537461727420696e646578206f7574206f6620626f756e647360381b60448201526064016103be565b600080855b6005548110801561050257508582105b156105a95760006005828154811061051c5761051c6128cd565b60009182526020808320909101546001600160a01b03168083529082905260409091206003015490915060ff16801561057557506001600160a01b038116600090815260208190526040902060030154610100900460ff165b156105965783610584816128f9565b9450508280610592906128f9565b9350505b50806105a1816128f9565b9150506104f2565b50816001600160401b038111156105c2576105c261241c565b6040519080825280602002602001820160405280156105eb578160200160208202803683370190505b509350816001600160401b038111156106065761060661241c565b60405190808252806020026020018201604052801561063957816020015b60608152602001906001900390816106245790505b5092506000905080865b6005548110801561065357508683105b156107de5760006005828154811061066d5761066d6128cd565b60009182526020808320909101546001600160a01b03168083529082905260409091206003015490915060ff1680156106c657506001600160a01b038116600090815260208190526040902060030154610100900460ff165b156107cb57808784815181106106de576106de6128cd565b6001600160a01b0392831660209182029290920181019190915290821660009081529081905260409020805461071390612912565b80601f016020809104026020016040519081016040528092919081815260200182805461073f90612912565b801561078c5780601f106107615761010080835404028352916020019161078c565b820191906000526020600020905b81548152906001019060200180831161076f57829003601f168201915b50505050508684815181106107a3576107a36128cd565b602002602001018190525082806107b9906128f9565b93505083806107c7906128f9565b9450505b50806107d6816128f9565b915050610643565b505050509250929050565b606080606080600580549050861061083f5760405162461bcd60e51b8152602060048201526019602482015278537461727420696e646578206f7574206f6620626f756e647360381b60448201526064016103be565b600061084b868861294c565b60055490915081111561085d57506005545b6000610869888361295f565b9050806001600160401b038111156108835761088361241c565b6040519080825280602002602001820160405280156108ac578160200160208202803683370190505b509550806001600160401b038111156108c7576108c761241c565b6040519080825280602002602001820160405280156108fa57816020015b60608152602001906001900390816108e55790505b509450806001600160401b038111156109155761091561241c565b60405190808252806020026020018201604052801561093e578160200160208202803683370190505b509350806001600160401b038111156109595761095961241c565b604051908082528060200260200182016040528015610982578160200160208202803683370190505b50925060005b81811015610b55576000600561099e838c61294c565b815481106109ae576109ae6128cd565b9060005260206000200160009054906101000a90046001600160a01b03169050808883815181106109e1576109e16128cd565b6001600160a01b03928316602091820292909201810191909152908216600090815290819052604090208054610a1690612912565b80601f0160208091040260200160405190810160405280929190818152602001828054610a4290612912565b8015610a8f5780601f10610a6457610100808354040283529160200191610a8f565b820191906000526020600020905b815481529060010190602001808311610a7257829003601f168201915b5050505050878381518110610aa657610aa66128cd565b6020908102919091018101919091526001600160a01b0382166000908152908190526040902060030154865160ff90911690879084908110610aea57610aea6128cd565b9115156020928302919091018201526001600160a01b0382166000908152908190526040902060030154855161010090910460ff1690869084908110610b3257610b326128cd565b911515602092830291909101909101525080610b4d816128f9565b915050610988565b50505092959194509250565b6001600160a01b03811660009081526003602052604081205460ff168015610ba957506001600160a01b038216600090815260208190526040902060030154610100900460ff165b80156104955750506001600160a01b031660009081526020819052604090206003015460ff1690565b6007546001600160a01b03163314610bfc5760405162461bcd60e51b81526004016103be9061288b565b6001600160a01b03166000908152600660205260409020805460ff19166001179055565b6001600160a01b03811660009081526003602052604081205460609190829082908190819060ff16610c645760405162461bcd60e51b81526004016103be9061285e565b6001600160a01b038716600090815260208190526040808220815160c08101909252805482908290610c9590612912565b80601f0160208091040260200160405190810160405280929190818152602001828054610cc190612912565b8015610d0e5780601f10610ce357610100808354040283529160200191610d0e565b820191906000526020600020905b815481529060010190602001808311610cf157829003601f168201915b5050505050815260200160018201548152602001600282018054610d3190612912565b80601f0160208091040260200160405190810160405280929190818152602001828054610d5d90612912565b8015610daa5780601f10610d7f57610100808354040283529160200191610daa565b820191906000526020600020905b815481529060010190602001808311610d8d57829003601f168201915b5050509183525050600382015460ff80821615156020808501919091526101009092041615156040808401919091526004909301546060928301528351908401519284015191840151608085015160a090950151919d939c50919a5090985091965090945092505050565b60058181548110610e2557600080fd5b6000918252602090912001546001600160a01b0316905081565b3360009081526003602052604090205460ff16610e6e5760405162461bcd60e51b81526004016103be9061285e565b336000908152602081905260409020600301805461ff001916610100179055565b3360009081526003602052604090205460ff16610ebe5760405162461bcd60e51b81526004016103be9061285e565b6001600160a01b038116610f0d5760405162461bcd60e51b8152602060048201526016602482015275496e76616c696420766965776572206164647265737360501b60448201526064016103be565b336001600160a01b03821603610f655760405162461bcd60e51b815260206004820152601960248201527f43616e6e6f7420617574686f72697a6520796f757273656c660000000000000060448201526064016103be565b3360008181526004602090815260408083206001600160a01b03861680855290835292819020805460ff19166001179055514281529192917f331bc3d8f61b6cac03fc47a1f28bccd22a1808d9a5422772d0d0c9a29f08a4c491015b60405180910390a350565b3360009081526003602052604090205460ff16610ffb5760405162461bcd60e51b81526004016103be9061285e565b60008351116110425760405162461bcd60e51b815260206004820152601360248201527242696f2063616e6e6f7420626520656d70747960681b60448201526064016103be565b3360009081526001602081905260409091200161105f84826129c1565b503360009081526001602090815260409091208351611086926002909201918501906120c7565b508051156110ac573360009081526001602052604090206004016110aa82826129c1565b505b60405142815233907f03754aecf8745159503d95ad9d4b5e5ec503371279ddc036d4ac93cd953f9de29060200160405180910390a2505050565b3360009081526006602052604090205460ff168061110e57506007546001600160a01b031633145b61115a5760405162461bcd60e51b815260206004820152601c60248201527f4e6f7420617574686f72697a656420746f20766572696679204b59430000000060448201526064016103be565b6001600160a01b03891660009081526003602052604090205460ff16156111c35760405162461bcd60e51b815260206004820152601760248201527f5573657220616c7265616479207265676973746572656400000000000000000060448201526064016103be565b60008851116112145760405162461bcd60e51b815260206004820152601860248201527f557365726e616d652063616e6e6f7420626520656d707479000000000000000060448201526064016103be565b60128710158015611226575060648711155b6112725760405162461bcd60e51b815260206004820152601e60248201527f416765206d757374206265206265747765656e20313820616e6420313030000060448201526064016103be565b60008551116112c35760405162461bcd60e51b815260206004820152601960248201527f46756c6c206e616d652063616e6e6f7420626520656d7074790000000000000060448201526064016103be565b6040805160c08101825289815260208082018a9052818301899052600060608301819052600160808401524260a08401526001600160a01b038d16815290819052919091208151819061131690826129c1565b50602082015160018201556040820151600282019061133590826129c1565b5060608281015160038301805460808087015161ffff1990921693151561ff001916939093176101009115159190910217905560a0938401516004909301929092556040805160e08101825289815260208082018a9052818301899052928101879052928301859052805180830182526000808252948401528051808301825284815260c08401526001600160a01b038d1684526001909152909120815181906113df90826129c1565b50602082015160018201906113f490826129c1565b50604082015180516114109160028401916020909101906120c7565b50606082015160038201556080820151600482019061142f90826129c1565b5060a0820151600582019061144490826129c1565b5060c0820151600682019061145990826129c1565b5050506001600160a01b038916600081815260036020526040808220805460ff191660019081179091556005805491820181559092527f036b6384b5eca791c62761152d0c79bb0604c104a5fb6f4eb0703f3154bb3db090910180546001600160a01b03191683179055517f25dbccf9f713a2b16ed5d635585b4778d0d7e66b7b631871e668a694131e5fad906114f3908b904290612a80565b60405180910390a2505050505050505050565b6007546001600160a01b031633146115305760405162461bcd60e51b81526004016103be9061288b565b6007546001600160a01b039081169082160361158e5760405162461bcd60e51b815260206004820152601f60248201527f43616e6e6f742072656d6f7665206f776e65722061732076657269666965720060448201526064016103be565b6001600160a01b03166000908152600660205260409020805460ff19169055565b60608060008084336001600160a01b03821614806115f057506001600160a01b038116600090815260046020908152604080832033845290915290205460ff165b8061160557506007546001600160a01b031633145b6116215760405162461bcd60e51b81526004016103be90612aa2565b6001600160a01b03861660009081526003602052604090205460ff166116595760405162461bcd60e51b81526004016103be9061285e565b6001600160a01b038616600090815260026020526040808220815160a0810190925280548290829061168a90612912565b80601f01602080910402602001604051908101604052809291908181526020018280546116b690612912565b80156117035780601f106116d857610100808354040283529160200191611703565b820191906000526020600020905b8154815290600101906020018083116116e657829003601f168201915b5050505050815260200160018201805461171c90612912565b80601f016020809104026020016040519081016040528092919081815260200182805461174890612912565b80156117955780601f1061176a57610100808354040283529160200191611795565b820191906000526020600020905b81548152906001019060200180831161177857829003601f168201915b505050505081526020016002820180546117ae90612912565b80601f01602080910402602001604051908101604052809291908181526020018280546117da90612912565b80156118275780601f106117fc57610100808354040283529160200191611827565b820191906000526020600020905b81548152906001019060200180831161180a57829003601f168201915b50505091835250506003820154602082015260049091015460ff1615156040918201528151908201516060830151608090930151919a90995091975095509350505050565b3360009081526003602052604090205460ff1661189b5760405162461bcd60e51b81526004016103be9061285e565b3360008181526004602090815260408083206001600160a01b03861680855290835292819020805460ff19169055514281529192917f1f70f37d7ec806c5f86129460b2deb4d70e494a10182d4c929a8427f2f67dac59101610fc1565b3360009081526006602052604090205460ff168061192057506007546001600160a01b031633145b61196c5760405162461bcd60e51b815260206004820152601c60248201527f4e6f7420617574686f72697a656420746f20766572696679204b59430000000060448201526064016103be565b6001600160a01b03851660009081526003602052604090205460ff166119a45760405162461bcd60e51b81526004016103be9061285e565b6040805160a0810182528581526020808201869052818301849052426060830152600160808301526001600160a01b0388166000908152600290915291909120815181906119f290826129c1565b5060208201516001820190611a0790826129c1565b5060408201516002820190611a1c90826129c1565b5060608201516003808301919091556080909201516004909101805491151560ff199283161790556001600160a01b038716600090815260208181526040808320909401805490931660019081179093559190915220600501611a7f83826129c1565b5060405142815233906001600160a01b038716907fd8b879062b804f0a2bd0b75ba02d6dbd9999fc9971ece871c8d1aedb447c5f939060200160405180910390a35050505050565b6060808060008185336001600160a01b0382161480611b0957506001600160a01b038116600090815260046020908152604080832033845290915290205460ff165b80611b1e57506007546001600160a01b031633145b611b3a5760405162461bcd60e51b81526004016103be90612aa2565b6001600160a01b03871660009081526003602052604090205460ff16611b725760405162461bcd60e51b81526004016103be9061285e565b6001600160a01b038716600090815260016020526040808220815160e08101909252805482908290611ba390612912565b80601f0160208091040260200160405190810160405280929190818152602001828054611bcf90612912565b8015611c1c5780601f10611bf157610100808354040283529160200191611c1c565b820191906000526020600020905b815481529060010190602001808311611bff57829003601f168201915b50505050508152602001600182018054611c3590612912565b80601f0160208091040260200160405190810160405280929190818152602001828054611c6190612912565b8015611cae5780601f10611c8357610100808354040283529160200191611cae565b820191906000526020600020905b815481529060010190602001808311611c9157829003601f168201915b5050505050815260200160028201805480602002602001604051908101604052809291908181526020016000905b82821015611d88578382906000526020600020018054611cfb90612912565b80601f0160208091040260200160405190810160405280929190818152602001828054611d2790612912565b8015611d745780601f10611d4957610100808354040283529160200191611d74565b820191906000526020600020905b815481529060010190602001808311611d5757829003601f168201915b505050505081526020019060010190611cdc565b50505050815260200160038201548152602001600482018054611daa90612912565b80601f0160208091040260200160405190810160405280929190818152602001828054611dd690612912565b8015611e235780601f10611df857610100808354040283529160200191611e23565b820191906000526020600020905b815481529060010190602001808311611e0657829003601f168201915b50505050508152602001600582018054611e3c90612912565b80601f0160208091040260200160405190810160405280929190818152602001828054611e6890612912565b8015611eb55780601f10611e8a57610100808354040283529160200191611eb5565b820191906000526020600020905b815481529060010190602001808311611e9857829003601f168201915b50505050508152602001600682018054611ece90612912565b80601f0160208091040260200160405190810160405280929190818152602001828054611efa90612912565b8015611f475780601f10611f1c57610100808354040283529160200191611f47565b820191906000526020600020905b815481529060010190602001808311611f2a57829003601f168201915b5050509190925250508151602083015160408401516060850151608090950151929d919c509a50929850965090945050505050565b600060208190529081526040902080548190611f9790612912565b80601f0160208091040260200160405190810160405280929190818152602001828054611fc390612912565b80156120105780601f10611fe557610100808354040283529160200191612010565b820191906000526020600020905b815481529060010190602001808311611ff357829003601f168201915b50505050509080600101549080600201805461202b90612912565b80601f016020809104026020016040519081016040528092919081815260200182805461205790612912565b80156120a45780601f10612079576101008083540402835291602001916120a4565b820191906000526020600020905b81548152906001019060200180831161208757829003601f168201915b505050506003830154600490930154919260ff8082169361010090920416915086565b82805482825590600052602060002090810192821561210d579160200282015b8281111561210d57825182906120fd90826129c1565b50916020019190600101906120e7565b5061211992915061211d565b5090565b80821115612119576000612131828261213a565b5060010161211d565b50805461214690612912565b6000825580601f10612156575050565b601f0160209004906000526020600020908101906121749190612177565b50565b5b808211156121195760008155600101612178565b80356001600160a01b03811681146121a357600080fd5b919050565b6000602082840312156121ba57600080fd5b6121c38261218c565b9392505050565b600080604083850312156121dd57600080fd5b6121e68361218c565b91506121f46020840161218c565b90509250929050565b6000806040838503121561221057600080fd5b50508035926020909101359150565b600081518084526020808501945080840160005b838110156122585781516001600160a01b031687529582019590820190600101612233565b509495945050505050565b6000815180845260005b818110156122895760208185018101518683018201520161226d565b506000602082860101526020601f19601f83011685010191505092915050565b600082825180855260208086019550808260051b84010181860160005b848110156122f457601f198684030189526122e2838351612263565b988401989250908301906001016122c6565b5090979650505050505050565b604081526000612314604083018561221f565b828103602084015261232681856122a9565b95945050505050565b600081518084526020808501945080840160005b83811015612258578151151587529582019590820190600101612343565b608081526000612374608083018761221f565b828103602084015261238681876122a9565b9050828103604084015261239a818661232f565b905082810360608401526123ae818561232f565b979650505050505050565b60c0815260006123cc60c0830189612263565b87602084015282810360408401526123e48188612263565b95151560608401525050911515608083015260a0909101529392505050565b60006020828403121561241557600080fd5b5035919050565b634e487b7160e01b600052604160045260246000fd5b604051601f8201601f191681016001600160401b038111828210171561245a5761245a61241c565b604052919050565b600082601f83011261247357600080fd5b81356001600160401b0381111561248c5761248c61241c565b61249f601f8201601f1916602001612432565b8181528460208386010111156124b457600080fd5b816020850160208301376000918101602001919091529392505050565b600082601f8301126124e257600080fd5b813560206001600160401b03808311156124fe576124fe61241c565b8260051b61250d838201612432565b938452858101830193838101908886111561252757600080fd5b84880192505b85831015612563578235848111156125455760008081fd5b6125538a87838c0101612462565b835250918401919084019061252d565b98975050505050505050565b60008060006060848603121561258457600080fd5b83356001600160401b038082111561259b57600080fd5b6125a787838801612462565b945060208601359150808211156125bd57600080fd5b6125c9878388016124d1565b935060408601359150808211156125df57600080fd5b506125ec86828701612462565b9150509250925092565b60008060008060008060008060006101208a8c03121561261557600080fd5b61261e8a61218c565b985060208a01356001600160401b038082111561263a57600080fd5b6126468d838e01612462565b995060408c0135985060608c013591508082111561266357600080fd5b61266f8d838e01612462565b975060808c013591508082111561268557600080fd5b6126918d838e01612462565b965060a08c01359150808211156126a757600080fd5b6126b38d838e01612462565b955060c08c01359150808211156126c957600080fd5b6126d58d838e016124d1565b945060e08c013593506101008c01359150808211156126f357600080fd5b506127008c828d01612462565b9150509295985092959850929598565b6080815260006127236080830187612263565b82810360208401526127358187612263565b6040840195909552505090151560609091015292915050565b600080600080600060a0868803121561276657600080fd5b61276f8661218c565b945060208601356001600160401b038082111561278b57600080fd5b61279789838a01612462565b955060408801359150808211156127ad57600080fd5b6127b989838a01612462565b945060608801359150808211156127cf57600080fd5b6127db89838a01612462565b935060808801359150808211156127f157600080fd5b506127fe88828901612462565b9150509295509295909350565b60a08152600061281e60a0830188612263565b82810360208401526128308188612263565b9050828103604084015261284481876122a9565b905084606084015282810360808401526125638185612263565b602080825260139082015272155cd95c881b9bdd081c9959da5cdd195c9959606a1b604082015260600190565b60208082526022908201527f4f6e6c79206f776e65722063616e20706572666f726d2074686973206163746960408201526137b760f11b606082015260800190565b634e487b7160e01b600052603260045260246000fd5b634e487b7160e01b600052601160045260246000fd5b60006001820161290b5761290b6128e3565b5060010190565b600181811c9082168061292657607f821691505b60208210810361294657634e487b7160e01b600052602260045260246000fd5b50919050565b80820180821115610495576104956128e3565b81810381811115610495576104956128e3565b601f8211156129bc57600081815260208120601f850160051c810160208610156129995750805b601f850160051c820191505b818110156129b8578281556001016129a5565b5050505b505050565b81516001600160401b038111156129da576129da61241c565b6129ee816129e88454612912565b84612972565b602080601f831160018114612a235760008415612a0b5750858301515b600019600386901b1c1916600185901b1785556129b8565b600085815260208120601f198616915b82811015612a5257888601518255948401946001909101908401612a33565b5085821015612a705787850151600019600388901b60f8161c191681555b5050505050600190811b01905550565b604081526000612a936040830185612263565b90508260208301529392505050565b60208082526023908201527f4e6f7420617574686f72697a656420746f20766965772070726976617465206460408201526261746160e81b60608201526080019056fea2646970667358221220183e16d5efc1a3d4c7ad162c78df95478588475d6007c3ddaea9a5b8a6f1ab0a64736f6c63430008130033",
  "linkReferences": {},
  "deployedLinkReferences": {}
}