{
  "_format": "hh-sol-artifact-1",
  "contractName": "KYCProfile",
  "sourceName": "contracts/KYCProfile.sol",
  "abi": [
    {
      "inputs": [],
      "stateMutability": "nonpayable",
      "type": "constructor"
    },
    {
      "anonymous": false,
      "inputs": [
        {
          "indexed": true,
          "internalType": "address",
          "name": "user",
          "type": "address"
        },
        {
          "indexed": true,
          "internalType": "address",
          "name": "verifier",
          "type": "address"
        },
        {
          "indexed": false,
          "internalType": "uint256",
          "name": "timestamp",
          "type": "uint256"
        }
      ],
      "name": "KYCVerified",
      "type": "event"
    },
    {
      "anonymous": false,
      "inputs": [
        {
          "indexed": true,
          "internalType": "address",
          "name": "user",
          "type": "address"
        },
        {
          "indexed": false,
          "internalType": "string",
          "name": "username",
          "type": "string"
        },
        {
          "indexed": false,
          "internalType": "uint256",
          "name": "timestamp",
          "type": "uint256"
        }
      ],
      "name": "ProfileCreated",
      "type": "event"
    },
    {
      "anonymous": false,
      "inputs": [
        {
          "indexed": true,
          "internalType": "address",
          "name": "user",
          "type": "address"
        },
        {
          "indexed": false,
          "internalType": "uint256",
          "name": "timestamp",
          "type": "uint256"
        }
      ],
      "name": "ProfileUpdated",
      "type": "event"
    },
    {
      "anonymous": false,
      "inputs": [
        {
          "indexed": true,
          "internalType": "address",
          "name": "rater",
          "type": "address"
        },
        {
          "indexed": true,
          "internalType": "address",
          "name": "rated",
          "type": "address"
        },
        {
          "indexed": false,
          "internalType": "bool",
          "name": "isGreenFlag",
          "type": "bool"
        },
        {
          "indexed": false,
          "internalType": "uint256",
          "name": "timestamp",
          "type": "uint256"
        }
      ],
      "name": "UserRated",
      "type": "event"
    },
    {
      "anonymous": false,
      "inputs": [
        {
          "indexed": true,
          "internalType": "address",
          "name": "user",
          "type": "address"
        },
        {
          "indexed": true,
          "internalType": "address",
          "name": "viewer",
          "type": "address"
        },
        {
          "indexed": false,
          "internalType": "uint256",
          "name": "timestamp",
          "type": "uint256"
        }
      ],
      "name": "ViewerAuthorized",
      "type": "event"
    },
    {
      "anonymous": false,
      "inputs": [
        {
          "indexed": true,
          "internalType": "address",
          "name": "user",
          "type": "address"
        },
        {
          "indexed": true,
          "internalType": "address",
          "name": "viewer",
          "type": "address"
        },
        {
          "indexed": false,
          "internalType": "uint256",
          "name": "timestamp",
          "type": "uint256"
        }
      ],
      "name": "ViewerRevoked",
      "type": "event"
    },
    {
      "inputs": [
        {
          "internalType": "address",
          "name": "_verifier",
          "type": "address"
        }
      ],
      "name": "addAuthorizedVerifier",
      "outputs": [],
      "stateMutability": "nonpayable",
      "type": "function"
    },
    {
      "inputs": [
        {
          "internalType": "address",
          "name": "_viewer",
          "type": "address"
        }
      ],
      "name": "authorizeViewer",
      "outputs": [],
      "stateMutability": "nonpayable",
      "type": "function"
    },
    {
      "inputs": [
        {
          "internalType": "address",
          "name": "",
          "type": "address"
        }
      ],
      "name": "authorizedVerifiers",
      "outputs": [
        {
          "internalType": "bool",
          "name": "",
          "type": "bool"
        }
      ],
      "stateMutability": "view",
      "type": "function"
    },
    {
      "inputs": [
        {
          "internalType": "address",
          "name": "_user1",
          "type": "address"
        },
        {
          "internalType": "address",
          "name": "_user2",
          "type": "address"
        }
      ],
      "name": "checkMutualMatch",
      "outputs": [
        {
          "internalType": "bool",
          "name": "",
          "type": "bool"
        }
      ],
      "stateMutability": "view",
      "type": "function"
    },
    {
      "inputs": [
        {
          "internalType": "address",
          "name": "_user",
          "type": "address"
        },
        {
          "internalType": "string",
          "name": "_username",
          "type": "string"
        },
        {
          "internalType": "uint256",
          "name": "_age",
          "type": "uint256"
        },
        {
          "internalType": "string",
          "name": "_gender",
          "type": "string"
        },
        {
          "internalType": "string",
          "name": "_fullName",
          "type": "string"
        },
        {
          "internalType": "string",
          "name": "_bio",
          "type": "string"
        },
        {
          "internalType": "string[]",
          "name": "_interests",
          "type": "string[]"
        },
        {
          "internalType": "uint256",
          "name": "_monthlySalary",
          "type": "uint256"
        },
        {
          "internalType": "string",
          "name": "_profileImageHash",
          "type": "string"
        }
      ],
      "name": "createProfile",
      "outputs": [],
      "stateMutability": "nonpayable",
      "type": "function"
    },
    {
      "inputs": [],
      "name": "deactivateProfile",
      "outputs": [],
      "stateMutability": "nonpayable",
      "type": "function"
    },
    {
      "inputs": [
        {
          "internalType": "address",
          "name": "_user",
          "type": "address"
        }
      ],
      "name": "emergencyDeactivateUser",
      "outputs": [],
      "stateMutability": "nonpayable",
      "type": "function"
    },
    {
      "inputs": [
        {
          "internalType": "address",
          "name": "_user",
          "type": "address"
        }
      ],
      "name": "getKYCData",
      "outputs": [
        {
          "internalType": "string",
          "name": "documentType",
          "type": "string"
        },
        {
          "internalType": "string",
          "name": "verificationProvider",
          "type": "string"
        },
        {
          "internalType": "uint256",
          "name": "verificationTimestamp",
          "type": "uint256"
        },
        {
          "internalType": "bool",
          "name": "isVerified",
          "type": "bool"
        }
      ],
      "stateMutability": "view",
      "type": "function"
    },
    {
      "inputs": [],
      "name": "getMyFlags",
      "outputs": [
        {
          "internalType": "uint256",
          "name": "greenFlags",
          "type": "uint256"
        },
        {
          "internalType": "uint256",
          "name": "redFlags",
          "type": "uint256"
        }
      ],
      "stateMutability": "view",
      "type": "function"
    },
    {
      "inputs": [
        {
          "internalType": "uint256",
          "name": "_start",
          "type": "uint256"
        },
        {
          "internalType": "uint256",
          "name": "_limit",
          "type": "uint256"
        }
      ],
      "name": "getMyGreenFlaggers",
      "outputs": [
        {
          "internalType": "address[]",
          "name": "flaggers",
          "type": "address[]"
        },
        {
          "internalType": "string[]",
          "name": "usernames",
          "type": "string[]"
        },
        {
          "internalType": "uint256[]",
          "name": "timestamps",
          "type": "uint256[]"
        }
      ],
      "stateMutability": "view",
      "type": "function"
    },
    {
      "inputs": [
        {
          "internalType": "address",
          "name": "_user",
          "type": "address"
        }
      ],
      "name": "getPrivateProfile",
      "outputs": [
        {
          "internalType": "string",
          "name": "fullName",
          "type": "string"
        },
        {
          "internalType": "string",
          "name": "bio",
          "type": "string"
        },
        {
          "internalType": "string[]",
          "name": "interests",
          "type": "string[]"
        },
        {
          "internalType": "uint256",
          "name": "monthlySalary",
          "type": "uint256"
        },
        {
          "internalType": "string",
          "name": "profileImageHash",
          "type": "string"
        }
      ],
      "stateMutability": "view",
      "type": "function"
    },
    {
      "inputs": [
        {
          "internalType": "address",
          "name": "_user",
          "type": "address"
        }
      ],
      "name": "getPublicProfile",
      "outputs": [
        {
          "internalType": "string",
          "name": "username",
          "type": "string"
        },
        {
          "internalType": "uint256",
          "name": "age",
          "type": "uint256"
        },
        {
          "internalType": "string",
          "name": "gender",
          "type": "string"
        },
        {
          "internalType": "bool",
          "name": "isKYCVerified",
          "type": "bool"
        },
        {
          "internalType": "bool",
          "name": "isActive",
          "type": "bool"
        },
        {
          "internalType": "uint256",
          "name": "createdAt",
          "type": "uint256"
        }
      ],
      "stateMutability": "view",
      "type": "function"
    },
    {
      "inputs": [],
      "name": "getTotalUsers",
      "outputs": [
        {
          "internalType": "uint256",
          "name": "",
          "type": "uint256"
        }
      ],
      "stateMutability": "view",
      "type": "function"
    },
    {
      "inputs": [
        {
          "internalType": "uint256",
          "name": "_start",
          "type": "uint256"
        },
        {
          "internalType": "uint256",
          "name": "_limit",
          "type": "uint256"
        }
      ],
      "name": "getUsers",
      "outputs": [
        {
          "internalType": "address[]",
          "name": "addresses",
          "type": "address[]"
        },
        {
          "internalType": "string[]",
          "name": "usernames",
          "type": "string[]"
        },
        {
          "internalType": "bool[]",
          "name": "kycStatuses",
          "type": "bool[]"
        },
        {
          "internalType": "bool[]",
          "name": "activeStatuses",
          "type": "bool[]"
        }
      ],
      "stateMutability": "view",
      "type": "function"
    },
    {
      "inputs": [
        {
          "internalType": "uint256",
          "name": "_start",
          "type": "uint256"
        },
        {
          "internalType": "uint256",
          "name": "_limit",
          "type": "uint256"
        }
      ],
      "name": "getVerifiedActiveUsers",
      "outputs": [
        {
          "internalType": "address[]",
          "name": "addresses",
          "type": "address[]"
        },
        {
          "internalType": "string[]",
          "name": "usernames",
          "type": "string[]"
        }
      ],
      "stateMutability": "view",
      "type": "function"
    },
    {
      "inputs": [
        {
          "internalType": "address",
          "name": "_user",
          "type": "address"
        },
        {
          "internalType": "address",
          "name": "_viewer",
          "type": "address"
        }
      ],
      "name": "isAuthorizedViewer",
      "outputs": [
        {
          "internalType": "bool",
          "name": "",
          "type": "bool"
        }
      ],
      "stateMutability": "view",
      "type": "function"
    },
    {
      "inputs": [
        {
          "internalType": "address",
          "name": "",
          "type": "address"
        }
      ],
      "name": "isRegistered",
      "outputs": [
        {
          "internalType": "bool",
          "name": "",
          "type": "bool"
        }
      ],
      "stateMutability": "view",
      "type": "function"
    },
    {
      "inputs": [
        {
          "internalType": "address",
          "name": "_user",
          "type": "address"
        }
      ],
      "name": "isUserActiveAndVerified",
      "outputs": [
        {
          "internalType": "bool",
          "name": "",
          "type": "bool"
        }
      ],
      "stateMutability": "view",
      "type": "function"
    },
    {
      "inputs": [],
      "name": "owner",
      "outputs": [
        {
          "internalType": "address",
          "name": "",
          "type": "address"
        }
      ],
      "stateMutability": "view",
      "type": "function"
    },
    {
      "inputs": [
        {
          "internalType": "address",
          "name": "",
          "type": "address"
        }
      ],
      "name": "publicProfiles",
      "outputs": [
        {
          "internalType": "string",
          "name": "username",
          "type": "string"
        },
        {
          "internalType": "uint256",
          "name": "age",
          "type": "uint256"
        },
        {
          "internalType": "string",
          "name": "gender",
          "type": "string"
        },
        {
          "internalType": "bool",
          "name": "isKYCVerified",
          "type": "bool"
        },
        {
          "internalType": "bool",
          "name": "isActive",
          "type": "bool"
        },
        {
          "internalType": "uint256",
          "name": "createdAt",
          "type": "uint256"
        }
      ],
      "stateMutability": "view",
      "type": "function"
    },
    {
      "inputs": [
        {
          "internalType": "address",
          "name": "_userToRate",
          "type": "address"
        },
        {
          "internalType": "bool",
          "name": "_isGreenFlag",
          "type": "bool"
        }
      ],
      "name": "rateUser",
      "outputs": [],
      "stateMutability": "nonpayable",
      "type": "function"
    },
    {
      "inputs": [],
      "name": "reactivateProfile",
      "outputs": [],
      "stateMutability": "nonpayable",
      "type": "function"
    },
    {
      "inputs": [
        {
          "internalType": "uint256",
          "name": "",
          "type": "uint256"
        }
      ],
      "name": "registeredUsers",
      "outputs": [
        {
          "internalType": "address",
          "name": "",
          "type": "address"
        }
      ],
      "stateMutability": "view",
      "type": "function"
    },
    {
      "inputs": [
        {
          "internalType": "address",
          "name": "_verifier",
          "type": "address"
        }
      ],
      "name": "removeAuthorizedVerifier",
      "outputs": [],
      "stateMutability": "nonpayable",
      "type": "function"
    },
    {
      "inputs": [
        {
          "internalType": "address",
          "name": "_viewer",
          "type": "address"
        }
      ],
      "name": "revokeViewer",
      "outputs": [],
      "stateMutability": "nonpayable",
      "type": "function"
    },
    {
      "inputs": [
        {
          "internalType": "string",
          "name": "_bio",
          "type": "string"
        },
        {
          "internalType": "string[]",
          "name": "_interests",
          "type": "string[]"
        },
        {
          "internalType": "string",
          "name": "_profileImageHash",
          "type": "string"
        }
      ],
      "name": "updateProfile",
      "outputs": [],
      "stateMutability": "nonpayable",
      "type": "function"
    },
    {
      "inputs": [
        {
          "internalType": "address",
          "name": "_user",
          "type": "address"
        },
        {
          "internalType": "string",
          "name": "_documentType",
          "type": "string"
        },
        {
          "internalType": "string",
          "name": "_encryptedDocumentNumber",
          "type": "string"
        },
        {
          "internalType": "string",
          "name": "_kycDocumentHash",
          "type": "string"
        },
        {
          "internalType": "string",
          "name": "_verificationProvider",
          "type": "string"
        }
      ],
      "name": "verifyKYC",
      "outputs": [],
      "stateMutability": "nonpayable",
      "type": "function"
    }
  ],
  "bytecode": "0x608060405234801561001057600080fd5b50600a80546001600160a01b031916339081179091556000908152600960205260409020805460ff1916600117905561369b8061004e6000396000f3fe608060405234801561001057600080fd5b50600436106101a95760003560e01c806387d3701a116100f9578063ab47a2f911610097578063c3c5a54711610071578063c3c5a547146103e7578063c77304ce1461040a578063dc893a301461042e578063ffe5dcf81461044157600080fd5b8063ab47a2f91461039e578063ac0c087a146103c1578063b3768319146103d457600080fd5b80639a891716116100d35780639a8917161461033a5780639be572f61461035d578063a5f4f3ef1461036e578063a65a2c3e1461038b57600080fd5b806387d3701a146103015780638da5cb5b146103145780638eaf308c1461032757600080fd5b806357a1c5e9116101665780637259e0f8116101405780637259e0f8146102a857806375db7721146102d3578063869abfda146102db5780638701cc27146102ee57600080fd5b806357a1c5e91461025d5780636e607fa714610270578063700d23b81461028357600080fd5b806305e95a8d146101ae57806320a17bca146101d95780632102fc5e146101e3578063388edb2c146101f65780633a1723b41461021957806345982a661461023a575b600080fd5b6101c16101bc366004612c57565b610454565b6040516101d093929190612d5b565b60405180910390f35b6101e16108fe565b005b6101e16101f1366004612de0565b61094a565b610209610204366004612dfb565b6109d1565b60405190151581526020016101d0565b61022c610227366004612c57565b610a01565b6040516101d0929190612e2e565b61024d610248366004612c57565b610d4f565b6040516101d09493929190612e8e565b61020961026b366004612de0565b6110c7565b6101e161027e366004612de0565b611138565b610296610291366004612de0565b611186565b6040516101d096959493929190612ee6565b6102bb6102b6366004612f30565b61137b565b6040516001600160a01b0390911681526020016101d0565b6101e16113a5565b6102096102e9366004612dfb565b6113f5565b6101e16102fc366004612de0565b61153b565b6101e161030f36600461309c565b611678565b600a546102bb906001600160a01b031681565b6101e1610335366004613123565b611792565b610209610348366004612de0565b60096020526000908152604090205460ff1681565b6008546040519081526020016101d0565b610376611bb2565b604080519283526020830191909152016101d0565b6101e1610399366004612de0565b611c05565b6103b16103ac366004612de0565b611cae565b6040516101d0949392919061323d565b6101e16103cf366004612de0565b611f6b565b6101e16103e236600461327b565b611ff7565b6102096103f5366004612de0565b60036020526000908152604090205460ff1681565b61041d610418366004612de0565b6121c6565b6040516101d0959493929190613338565b61029661043c366004612de0565b61267b565b6101e161044f36600461338b565b6127c6565b336000908152600360205260409020546060908190819060ff166104935760405162461bcd60e51b815260040161048a906133c7565b60405180910390fd5b6000805b600854811015610542576000600882815481106104b6576104b66133f4565b60009182526020808320909101546001600160a01b031680835260058252604080842033855290925291205490915060ff16801561051c57506001600160a01b0381166000908152600560209081526040808320338452909152902054610100900460ff165b1561052f578261052b81613420565b9350505b508061053a81613420565b915050610497565b506000806000805b600854811080156105635750610560898b613439565b83105b1561061e5760006008828154811061057d5761057d6133f4565b60009182526020808320909101546001600160a01b031680835260058252604080842033855290925291205490915060ff1680156105e357506001600160a01b0381166000908152600560209081526040808320338452909152902054610100900460ff165b1561060b578a84106105fd57826105f981613420565b9350505b8361060781613420565b9450505b508061061681613420565b91505061054a565b50806001600160401b0381111561063757610637612f49565b604051908082528060200260200182016040528015610660578160200160208202803683370190505b509650806001600160401b0381111561067b5761067b612f49565b6040519080825280602002602001820160405280156106ae57816020015b60608152602001906001900390816106995790505b509550806001600160401b038111156106c9576106c9612f49565b6040519080825280602002602001820160405280156106f2578160200160208202803683370190505b509450600080925060005b6008548110801561070d57508282105b156108f157600060088281548110610727576107276133f4565b60009182526020808320909101546001600160a01b031680835260058252604080842033855290925291205490915060ff16801561078d57506001600160a01b0381166000908152600560209081526040808320338452909152902054610100900460ff165b156108de578b85106108d057808a84815181106107ac576107ac6133f4565b6001600160a01b039283166020918202929092018101919091529082166000908152908190526040902080546107e19061344c565b80601f016020809104026020016040519081016040528092919081815260200182805461080d9061344c565b801561085a5780601f1061082f5761010080835404028352916020019161085a565b820191906000526020600020905b81548152906001019060200180831161083d57829003601f168201915b5050505050898481518110610871576108716133f4565b6020908102919091018101919091526001600160a01b0382166000908152600582526040808220338352909252206001015488518990859081106108b7576108b76133f4565b6020908102919091010152826108cc81613420565b9350505b846108da81613420565b9550505b50806108e981613420565b9150506106fd565b5050505050509250925092565b3360009081526003602052604090205460ff1661092d5760405162461bcd60e51b815260040161048a906133c7565b336000908152602081905260409020600301805461ff0019169055565b600a546001600160a01b031633146109745760405162461bcd60e51b815260040161048a90613486565b6001600160a01b03811660009081526003602052604090205460ff166109ac5760405162461bcd60e51b815260040161048a906133c7565b6001600160a01b03166000908152602081905260409020600301805461ff0019169055565b6001600160a01b0380831660009081526004602090815260408083209385168352929052205460ff165b92915050565b60085460609081908410610a535760405162461bcd60e51b8152602060048201526019602482015278537461727420696e646578206f7574206f6620626f756e647360381b604482015260640161048a565b600080855b60085481108015610a6857508582105b15610b0f57600060088281548110610a8257610a826133f4565b60009182526020808320909101546001600160a01b03168083529082905260409091206003015490915060ff168015610adb57506001600160a01b038116600090815260208190526040902060030154610100900460ff165b15610afc5783610aea81613420565b9450508280610af890613420565b9350505b5080610b0781613420565b915050610a58565b50816001600160401b03811115610b2857610b28612f49565b604051908082528060200260200182016040528015610b51578160200160208202803683370190505b509350816001600160401b03811115610b6c57610b6c612f49565b604051908082528060200260200182016040528015610b9f57816020015b6060815260200190600190039081610b8a5790505b5092506000905080865b60085481108015610bb957508683105b15610d4457600060088281548110610bd357610bd36133f4565b60009182526020808320909101546001600160a01b03168083529082905260409091206003015490915060ff168015610c2c57506001600160a01b038116600090815260208190526040902060030154610100900460ff165b15610d315780878481518110610c4457610c446133f4565b6001600160a01b03928316602091820292909201810191909152908216600090815290819052604090208054610c799061344c565b80601f0160208091040260200160405190810160405280929190818152602001828054610ca59061344c565b8015610cf25780601f10610cc757610100808354040283529160200191610cf2565b820191906000526020600020905b815481529060010190602001808311610cd557829003601f168201915b5050505050868481518110610d0957610d096133f4565b60200260200101819052508280610d1f90613420565b9350508380610d2d90613420565b9450505b5080610d3c81613420565b915050610ba9565b505050509250929050565b6060806060806008805490508610610da55760405162461bcd60e51b8152602060048201526019602482015278537461727420696e646578206f7574206f6620626f756e647360381b604482015260640161048a565b6000610db18688613439565b600854909150811115610dc357506008545b6000610dcf88836134c8565b9050806001600160401b03811115610de957610de9612f49565b604051908082528060200260200182016040528015610e12578160200160208202803683370190505b509550806001600160401b03811115610e2d57610e2d612f49565b604051908082528060200260200182016040528015610e6057816020015b6060815260200190600190039081610e4b5790505b509450806001600160401b03811115610e7b57610e7b612f49565b604051908082528060200260200182016040528015610ea4578160200160208202803683370190505b509350806001600160401b03811115610ebf57610ebf612f49565b604051908082528060200260200182016040528015610ee8578160200160208202803683370190505b50925060005b818110156110bb5760006008610f04838c613439565b81548110610f1457610f146133f4565b9060005260206000200160009054906101000a90046001600160a01b0316905080888381518110610f4757610f476133f4565b6001600160a01b03928316602091820292909201810191909152908216600090815290819052604090208054610f7c9061344c565b80601f0160208091040260200160405190810160405280929190818152602001828054610fa89061344c565b8015610ff55780601f10610fca57610100808354040283529160200191610ff5565b820191906000526020600020905b815481529060010190602001808311610fd857829003601f168201915b505050505087838151811061100c5761100c6133f4565b6020908102919091018101919091526001600160a01b0382166000908152908190526040902060030154865160ff90911690879084908110611050576110506133f4565b9115156020928302919091018201526001600160a01b0382166000908152908190526040902060030154855161010090910460ff1690869084908110611098576110986133f4565b9115156020928302919091019091015250806110b381613420565b915050610eee565b50505092959194509250565b6001600160a01b03811660009081526003602052604081205460ff16801561110f57506001600160a01b038216600090815260208190526040902060030154610100900460ff165b80156109fb5750506001600160a01b031660009081526020819052604090206003015460ff1690565b600a546001600160a01b031633146111625760405162461bcd60e51b815260040161048a90613486565b6001600160a01b03166000908152600960205260409020805460ff19166001179055565b6001600160a01b03811660009081526003602052604081205460609190829082908190819060ff166111ca5760405162461bcd60e51b815260040161048a906133c7565b6001600160a01b038716600090815260208190526040808220815160c081019092528054829082906111fb9061344c565b80601f01602080910402602001604051908101604052809291908181526020018280546112279061344c565b80156112745780601f1061124957610100808354040283529160200191611274565b820191906000526020600020905b81548152906001019060200180831161125757829003601f168201915b50505050508152602001600182015481526020016002820180546112979061344c565b80601f01602080910402602001604051908101604052809291908181526020018280546112c39061344c565b80156113105780601f106112e557610100808354040283529160200191611310565b820191906000526020600020905b8154815290600101906020018083116112f357829003601f168201915b5050509183525050600382015460ff80821615156020808501919091526101009092041615156040808401919091526004909301546060928301528351908401519284015191840151608085015160a090950151919d939c50919a5090985091965090945092505050565b6008818154811061138b57600080fd5b6000918252602090912001546001600160a01b0316905081565b3360009081526003602052604090205460ff166113d45760405162461bcd60e51b815260040161048a906133c7565b336000908152602081905260409020600301805461ff001916610100179055565b6000336001600160a01b03841614806114165750336001600160a01b038316145b61146e5760405162461bcd60e51b815260206004820152602360248201527f43616e206f6e6c7920636865636b206d61746368657320666f7220796f75727360448201526232b63360e91b606482015260840161048a565b6001600160a01b0380841660009081526005602090815260408083209386168352929052205460ff1680156114cd57506001600160a01b03838116600090815260056020908152604080832093861683529290522054610100900460ff165b80156114fe57506001600160a01b0380831660009081526005602090815260408083209387168352929052205460ff165b801561153457506001600160a01b03828116600090815260056020908152604080832093871683529290522054610100900460ff165b9392505050565b3360009081526003602052604090205460ff1661156a5760405162461bcd60e51b815260040161048a906133c7565b6001600160a01b0381166115b95760405162461bcd60e51b8152602060048201526016602482015275496e76616c696420766965776572206164647265737360501b604482015260640161048a565b336001600160a01b038216036116115760405162461bcd60e51b815260206004820152601960248201527f43616e6e6f7420617574686f72697a6520796f757273656c6600000000000000604482015260640161048a565b3360008181526004602090815260408083206001600160a01b03861680855290835292819020805460ff19166001179055514281529192917f331bc3d8f61b6cac03fc47a1f28bccd22a1808d9a5422772d0d0c9a29f08a4c491015b60405180910390a350565b3360009081526003602052604090205460ff166116a75760405162461bcd60e51b815260040161048a906133c7565b60008351116116ee5760405162461bcd60e51b815260206004820152601360248201527242696f2063616e6e6f7420626520656d70747960681b604482015260640161048a565b3360009081526001602081905260409091200161170b848261352a565b50336000908152600160209081526040909120835161173292600290920191850190612b92565b5080511561175857336000908152600160205260409020600401611756828261352a565b505b60405142815233907f03754aecf8745159503d95ad9d4b5e5ec503371279ddc036d4ac93cd953f9de29060200160405180910390a2505050565b3360009081526009602052604090205460ff16806117ba5750600a546001600160a01b031633145b6118065760405162461bcd60e51b815260206004820152601c60248201527f4e6f7420617574686f72697a656420746f20766572696679204b594300000000604482015260640161048a565b6001600160a01b03891660009081526003602052604090205460ff161561186f5760405162461bcd60e51b815260206004820152601760248201527f5573657220616c72656164792072656769737465726564000000000000000000604482015260640161048a565b60008851116118c05760405162461bcd60e51b815260206004820152601860248201527f557365726e616d652063616e6e6f7420626520656d7074790000000000000000604482015260640161048a565b601287101580156118d2575060648711155b61191e5760405162461bcd60e51b815260206004820152601e60248201527f416765206d757374206265206265747765656e20313820616e64203130300000604482015260640161048a565b600085511161196f5760405162461bcd60e51b815260206004820152601960248201527f46756c6c206e616d652063616e6e6f7420626520656d70747900000000000000604482015260640161048a565b6040805160c08101825289815260208082018a9052818301899052600060608301819052600160808401524260a08401526001600160a01b038d1681529081905291909120815181906119c2908261352a565b5060208201516001820155604082015160028201906119e1908261352a565b5060608281015160038301805460808087015161ffff1990921693151561ff001916939093176101009115159190910217905560a0938401516004909301929092556040805160e08101825289815260208082018a9052818301899052928101879052928301859052805180830182526000808252948401528051808301825284815260c08401526001600160a01b038d168452600190915290912081518190611a8b908261352a565b5060208201516001820190611aa0908261352a565b5060408201518051611abc916002840191602090910190612b92565b506060820151600382015560808201516004820190611adb908261352a565b5060a08201516005820190611af0908261352a565b5060c08201516006820190611b05908261352a565b5050506001600160a01b038916600081815260036020526040808220805460ff191660019081179091556008805491820181559092527ff3f7a9fe364faab93b216da50a3214154f22a0a2b415b23a84c8169e8b636ee390910180546001600160a01b03191683179055517f25dbccf9f713a2b16ed5d635585b4778d0d7e66b7b631871e668a694131e5fad90611b9f908b9042906135e9565b60405180910390a2505050505050505050565b33600090815260036020526040812054819060ff16611be35760405162461bcd60e51b815260040161048a906133c7565b5050336000908152600660209081526040808320546007909252909120549091565b600a546001600160a01b03163314611c2f5760405162461bcd60e51b815260040161048a90613486565b600a546001600160a01b0390811690821603611c8d5760405162461bcd60e51b815260206004820152601f60248201527f43616e6e6f742072656d6f7665206f776e657220617320766572696669657200604482015260640161048a565b6001600160a01b03166000908152600960205260409020805460ff19169055565b60608060008084336001600160a01b0382161480611cef57506001600160a01b038116600090815260046020908152604080832033845290915290205460ff165b80611d045750600a546001600160a01b031633145b611d205760405162461bcd60e51b815260040161048a9061360b565b6001600160a01b03861660009081526003602052604090205460ff16611d585760405162461bcd60e51b815260040161048a906133c7565b6001600160a01b038616600090815260026020526040808220815160a08101909252805482908290611d899061344c565b80601f0160208091040260200160405190810160405280929190818152602001828054611db59061344c565b8015611e025780601f10611dd757610100808354040283529160200191611e02565b820191906000526020600020905b815481529060010190602001808311611de557829003601f168201915b50505050508152602001600182018054611e1b9061344c565b80601f0160208091040260200160405190810160405280929190818152602001828054611e479061344c565b8015611e945780601f10611e6957610100808354040283529160200191611e94565b820191906000526020600020905b815481529060010190602001808311611e7757829003601f168201915b50505050508152602001600282018054611ead9061344c565b80601f0160208091040260200160405190810160405280929190818152602001828054611ed99061344c565b8015611f265780601f10611efb57610100808354040283529160200191611f26565b820191906000526020600020905b815481529060010190602001808311611f0957829003601f168201915b50505091835250506003820154602082015260049091015460ff1615156040918201528151908201516060830151608090930151919a90995091975095509350505050565b3360009081526003602052604090205460ff16611f9a5760405162461bcd60e51b815260040161048a906133c7565b3360008181526004602090815260408083206001600160a01b03861680855290835292819020805460ff19169055514281529192917f1f70f37d7ec806c5f86129460b2deb4d70e494a10182d4c929a8427f2f67dac5910161166d565b3360009081526009602052604090205460ff168061201f5750600a546001600160a01b031633145b61206b5760405162461bcd60e51b815260206004820152601c60248201527f4e6f7420617574686f72697a656420746f20766572696679204b594300000000604482015260640161048a565b6001600160a01b03851660009081526003602052604090205460ff166120a35760405162461bcd60e51b815260040161048a906133c7565b6040805160a0810182528581526020808201869052818301849052426060830152600160808301526001600160a01b0388166000908152600290915291909120815181906120f1908261352a565b5060208201516001820190612106908261352a565b506040820151600282019061211b908261352a565b5060608201516003808301919091556080909201516004909101805491151560ff199283161790556001600160a01b03871660009081526020818152604080832090940180549093166001908117909355919091522060050161217e838261352a565b5060405142815233906001600160a01b038716907fd8b879062b804f0a2bd0b75ba02d6dbd9999fc9971ece871c8d1aedb447c5f939060200160405180910390a35050505050565b6060808060008185336001600160a01b038216148061220857506001600160a01b038116600090815260046020908152604080832033845290915290205460ff165b8061221d5750600a546001600160a01b031633145b6122395760405162461bcd60e51b815260040161048a9061360b565b6001600160a01b03871660009081526003602052604090205460ff166122715760405162461bcd60e51b815260040161048a906133c7565b6001600160a01b038716600090815260016020526040808220815160e081019092528054829082906122a29061344c565b80601f01602080910402602001604051908101604052809291908181526020018280546122ce9061344c565b801561231b5780601f106122f05761010080835404028352916020019161231b565b820191906000526020600020905b8154815290600101906020018083116122fe57829003601f168201915b505050505081526020016001820180546123349061344c565b80601f01602080910402602001604051908101604052809291908181526020018280546123609061344c565b80156123ad5780601f10612382576101008083540402835291602001916123ad565b820191906000526020600020905b81548152906001019060200180831161239057829003601f168201915b5050505050815260200160028201805480602002602001604051908101604052809291908181526020016000905b828210156124875783829060005260206000200180546123fa9061344c565b80601f01602080910402602001604051908101604052809291908181526020018280546124269061344c565b80156124735780601f1061244857610100808354040283529160200191612473565b820191906000526020600020905b81548152906001019060200180831161245657829003601f168201915b5050505050815260200190600101906123db565b505050508152602001600382015481526020016004820180546124a99061344c565b80601f01602080910402602001604051908101604052809291908181526020018280546124d59061344c565b80156125225780601f106124f757610100808354040283529160200191612522565b820191906000526020600020905b81548152906001019060200180831161250557829003601f168201915b5050505050815260200160058201805461253b9061344c565b80601f01602080910402602001604051908101604052809291908181526020018280546125679061344c565b80156125b45780601f10612589576101008083540402835291602001916125b4565b820191906000526020600020905b81548152906001019060200180831161259757829003601f168201915b505050505081526020016006820180546125cd9061344c565b80601f01602080910402602001604051908101604052809291908181526020018280546125f99061344c565b80156126465780601f1061261b57610100808354040283529160200191612646565b820191906000526020600020905b81548152906001019060200180831161262957829003601f168201915b5050509190925250508151602083015160408401516060850151608090950151929d919c509a50929850965090945050505050565b6000602081905290815260409020805481906126969061344c565b80601f01602080910402602001604051908101604052809291908181526020018280546126c29061344c565b801561270f5780601f106126e45761010080835404028352916020019161270f565b820191906000526020600020905b8154815290600101906020018083116126f257829003601f168201915b50505050509080600101549080600201805461272a9061344c565b80601f01602080910402602001604051908101604052809291908181526020018280546127569061344c565b80156127a35780601f10612778576101008083540402835291602001916127a3565b820191906000526020600020905b81548152906001019060200180831161278657829003601f168201915b505050506003830154600490930154919260ff8082169361010090920416915086565b3360009081526003602052604090205460ff166127f55760405162461bcd60e51b815260040161048a906133c7565b6001600160a01b0382166128425760405162461bcd60e51b8152602060048201526014602482015273496e76616c69642075736572206164647265737360601b604482015260640161048a565b336001600160a01b038316036128915760405162461bcd60e51b815260206004820152601460248201527321b0b73737ba103930ba32903cb7bab939b2b63360611b604482015260640161048a565b6001600160a01b03821660009081526003602052604090205460ff166128f95760405162461bcd60e51b815260206004820152601e60248201527f5573657220746f2072617465206973206e6f7420726567697374657265640000604482015260640161048a565b6001600160a01b038216600090815260208190526040902060030154610100900460ff166129695760405162461bcd60e51b815260206004820152601a60248201527f5573657220746f2072617465206973206e6f7420616374697665000000000000604482015260640161048a565b3360009081526005602090815260408083206001600160a01b03861684529091529020805460ff1615612a8157805460ff61010090910416151582151514612a76578054610100900460ff1615612a11576001600160a01b03831660009081526006602052604081208054916129de8361364e565b90915550506001600160a01b0383166000908152600760205260408120805491612a0783613420565b9190505550612a64565b6001600160a01b0383166000908152600760205260408120805491612a358361364e565b90915550506001600160a01b0383166000908152600660205260408120805491612a5e83613420565b91905055505b805461ff001916610100831515021781555b426001820155612b46565b60408051606081018252600180825284158015602080850191825242858701908152336000908152600583528781206001600160a01b038c16825290925295902093518454915161ffff1990921690151561ff00191617610100911515919091021783559251910155612b1c576001600160a01b0383166000908152600660205260408120805491612b1283613420565b9190505550612b46565b6001600160a01b0383166000908152600760205260408120805491612b4083613420565b91905055505b6040805183151581524260208201526001600160a01b0385169133917f75618ef4e103920317f96aaf181e7fbabbba7d38b1908ed20878d93360bd3387910160405180910390a3505050565b828054828255906000526020600020908101928215612bd8579160200282015b82811115612bd85782518290612bc8908261352a565b5091602001919060010190612bb2565b50612be4929150612be8565b5090565b80821115612be4576000612bfc8282612c05565b50600101612be8565b508054612c119061344c565b6000825580601f10612c21575050565b601f016020900490600052602060002090810190612c3f9190612c42565b50565b5b80821115612be45760008155600101612c43565b60008060408385031215612c6a57600080fd5b50508035926020909101359150565b600081518084526020808501945080840160005b83811015612cb25781516001600160a01b031687529582019590820190600101612c8d565b509495945050505050565b6000815180845260005b81811015612ce357602081850181015186830182015201612cc7565b506000602082860101526020601f19601f83011685010191505092915050565b600082825180855260208086019550808260051b84010181860160005b84811015612d4e57601f19868403018952612d3c838351612cbd565b98840198925090830190600101612d20565b5090979650505050505050565b606081526000612d6e6060830186612c79565b602083820381850152612d818287612d03565b8481036040860152855180825282870193509082019060005b81811015612db657845183529383019391830191600101612d9a565b509098975050505050505050565b80356001600160a01b0381168114612ddb57600080fd5b919050565b600060208284031215612df257600080fd5b61153482612dc4565b60008060408385031215612e0e57600080fd5b612e1783612dc4565b9150612e2560208401612dc4565b90509250929050565b604081526000612e416040830185612c79565b8281036020840152612e538185612d03565b95945050505050565b600081518084526020808501945080840160005b83811015612cb2578151151587529582019590820190600101612e70565b608081526000612ea16080830187612c79565b8281036020840152612eb38187612d03565b90508281036040840152612ec78186612e5c565b90508281036060840152612edb8185612e5c565b979650505050505050565b60c081526000612ef960c0830189612cbd565b8760208401528281036040840152612f118188612cbd565b95151560608401525050911515608083015260a0909101529392505050565b600060208284031215612f4257600080fd5b5035919050565b634e487b7160e01b600052604160045260246000fd5b604051601f8201601f191681016001600160401b0381118282101715612f8757612f87612f49565b604052919050565b600082601f830112612fa057600080fd5b81356001600160401b03811115612fb957612fb9612f49565b612fcc601f8201601f1916602001612f5f565b818152846020838601011115612fe157600080fd5b816020850160208301376000918101602001919091529392505050565b600082601f83011261300f57600080fd5b813560206001600160401b038083111561302b5761302b612f49565b8260051b61303a838201612f5f565b938452858101830193838101908886111561305457600080fd5b84880192505b85831015613090578235848111156130725760008081fd5b6130808a87838c0101612f8f565b835250918401919084019061305a565b98975050505050505050565b6000806000606084860312156130b157600080fd5b83356001600160401b03808211156130c857600080fd5b6130d487838801612f8f565b945060208601359150808211156130ea57600080fd5b6130f687838801612ffe565b9350604086013591508082111561310c57600080fd5b5061311986828701612f8f565b9150509250925092565b60008060008060008060008060006101208a8c03121561314257600080fd5b61314b8a612dc4565b985060208a01356001600160401b038082111561316757600080fd5b6131738d838e01612f8f565b995060408c0135985060608c013591508082111561319057600080fd5b61319c8d838e01612f8f565b975060808c01359150808211156131b257600080fd5b6131be8d838e01612f8f565b965060a08c01359150808211156131d457600080fd5b6131e08d838e01612f8f565b955060c08c01359150808211156131f657600080fd5b6132028d838e01612ffe565b945060e08c013593506101008c013591508082111561322057600080fd5b5061322d8c828d01612f8f565b9150509295985092959850929598565b6080815260006132506080830187612cbd565b82810360208401526132628187612cbd565b6040840195909552505090151560609091015292915050565b600080600080600060a0868803121561329357600080fd5b61329c86612dc4565b945060208601356001600160401b03808211156132b857600080fd5b6132c489838a01612f8f565b955060408801359150808211156132da57600080fd5b6132e689838a01612f8f565b945060608801359150808211156132fc57600080fd5b61330889838a01612f8f565b9350608088013591508082111561331e57600080fd5b5061332b88828901612f8f565b9150509295509295909350565b60a08152600061334b60a0830188612cbd565b828103602084015261335d8188612cbd565b905082810360408401526133718187612d03565b905084606084015282810360808401526130908185612cbd565b6000806040838503121561339e57600080fd5b6133a783612dc4565b9150602083013580151581146133bc57600080fd5b809150509250929050565b602080825260139082015272155cd95c881b9bdd081c9959da5cdd195c9959606a1b604082015260600190565b634e487b7160e01b600052603260045260246000fd5b634e487b7160e01b600052601160045260246000fd5b6000600182016134325761343261340a565b5060010190565b808201808211156109fb576109fb61340a565b600181811c9082168061346057607f821691505b60208210810361348057634e487b7160e01b600052602260045260246000fd5b50919050565b60208082526022908201527f4f6e6c79206f776e65722063616e20706572666f726d2074686973206163746960408201526137b760f11b606082015260800190565b818103818111156109fb576109fb61340a565b601f82111561352557600081815260208120601f850160051c810160208610156135025750805b601f850160051c820191505b818110156135215782815560010161350e565b5050505b505050565b81516001600160401b0381111561354357613543612f49565b61355781613551845461344c565b846134db565b602080601f83116001811461358c57600084156135745750858301515b600019600386901b1c1916600185901b178555613521565b600085815260208120601f198616915b828110156135bb5788860151825594840194600190910190840161359c565b50858210156135d95787850151600019600388901b60f8161c191681555b5050505050600190811b01905550565b6040815260006135fc6040830185612cbd565b90508260208301529392505050565b60208082526023908201527f4e6f7420617574686f72697a656420746f20766965772070726976617465206460408201526261746160e81b606082015260800190565b60008161365d5761365d61340a565b50600019019056fea26469706673582212203e7db927bda8170447adba1dcb29155c90a7457b3035980522271c348919fb1764736f6c63430008130033",
  "linkReferences": {},
  "deployedLinkReferences": {}
}