{
  "_format": "hh-sol-artifact-1",
  "contractName": "UserProfile",
  "sourceName": "contracts/UserProfile.sol",
  "abi": [
    {
      "anonymous": false,
      "inputs": [
        {
          "indexed": true,
          "internalType": "address",
          "name": "user",
          "type": "address"
        },
        {
          "indexed": false,
          "internalType": "string",
          "name": "name",
          "type": "string"
        },
        {
          "indexed": false,
          "internalType": "uint256",
          "name": "timestamp",
          "type": "uint256"
        }
      ],
      "name": "ProfileCreated",
      "type": "event"
    },
    {
      "anonymous": false,
      "inputs": [
        {
          "indexed": true,
          "internalType": "address",
          "name": "user",
          "type": "address"
        },
        {
          "indexed": false,
          "internalType": "uint256",
          "name": "timestamp",
          "type": "uint256"
        }
      ],
      "name": "ProfileUpdated",
      "type": "event"
    },
    {
      "anonymous": false,
      "inputs": [
        {
          "indexed": true,
          "internalType": "address",
          "name": "user",
          "type": "address"
        },
        {
          "indexed": false,
          "internalType": "uint256",
          "name": "timestamp",
          "type": "uint256"
        }
      ],
      "name": "ProfileVerified",
      "type": "event"
    },
    {
      "inputs": [
        {
          "internalType": "address",
          "name": "_user",
          "type": "address"
        }
      ],
      "name": "checkRegistration",
      "outputs": [
        {
          "internalType": "bool",
          "name": "",
          "type": "bool"
        }
      ],
      "stateMutability": "view",
      "type": "function"
    },
    {
      "inputs": [
        {
          "internalType": "string",
          "name": "_name",
          "type": "string"
        },
        {
          "internalType": "uint256",
          "name": "_age",
          "type": "uint256"
        },
        {
          "internalType": "string",
          "name": "_gender",
          "type": "string"
        },
        {
          "internalType": "string",
          "name": "_bio",
          "type": "string"
        },
        {
          "internalType": "string[]",
          "name": "_interests",
          "type": "string[]"
        },
        {
          "internalType": "uint256",
          "name": "_monthlySalary",
          "type": "uint256"
        },
        {
          "internalType": "string",
          "name": "_profileImageHash",
          "type": "string"
        },
        {
          "internalType": "string",
          "name": "_payslipHash",
          "type": "string"
        }
      ],
      "name": "createProfile",
      "outputs": [],
      "stateMutability": "nonpayable",
      "type": "function"
    },
    {
      "inputs": [],
      "name": "deactivateProfile",
      "outputs": [],
      "stateMutability": "nonpayable",
      "type": "function"
    },
    {
      "inputs": [
        {
          "internalType": "uint256",
          "name": "_start",
          "type": "uint256"
        },
        {
          "internalType": "uint256",
          "name": "_limit",
          "type": "uint256"
        }
      ],
      "name": "getActiveUsers",
      "outputs": [
        {
          "internalType": "address[]",
          "name": "",
          "type": "address[]"
        }
      ],
      "stateMutability": "view",
      "type": "function"
    },
    {
      "inputs": [],
      "name": "getMyProfile",
      "outputs": [
        {
          "internalType": "string",
          "name": "name",
          "type": "string"
        },
        {
          "internalType": "uint256",
          "name": "age",
          "type": "uint256"
        },
        {
          "internalType": "string",
          "name": "gender",
          "type": "string"
        },
        {
          "internalType": "string",
          "name": "bio",
          "type": "string"
        },
        {
          "internalType": "string[]",
          "name": "interests",
          "type": "string[]"
        },
        {
          "internalType": "uint256",
          "name": "monthlySalary",
          "type": "uint256"
        },
        {
          "internalType": "string",
          "name": "profileImageHash",
          "type": "string"
        },
        {
          "internalType": "string",
          "name": "payslipHash",
          "type": "string"
        },
        {
          "internalType": "bool",
          "name": "isVerified",
          "type": "bool"
        },
        {
          "internalType": "bool",
          "name": "isActive",
          "type": "bool"
        },
        {
          "internalType": "uint256",
          "name": "createdAt",
          "type": "uint256"
        },
        {
          "internalType": "address",
          "name": "userAddress",
          "type": "address"
        }
      ],
      "stateMutability": "view",
      "type": "function"
    },
    {
      "inputs": [
        {
          "internalType": "address",
          "name": "_user",
          "type": "address"
        }
      ],
      "name": "getProfile",
      "outputs": [
        {
          "internalType": "string",
          "name": "name",
          "type": "string"
        },
        {
          "internalType": "uint256",
          "name": "age",
          "type": "uint256"
        },
        {
          "internalType": "string",
          "name": "gender",
          "type": "string"
        },
        {
          "internalType": "string",
          "name": "bio",
          "type": "string"
        },
        {
          "internalType": "string[]",
          "name": "interests",
          "type": "string[]"
        },
        {
          "internalType": "uint256",
          "name": "monthlySalary",
          "type": "uint256"
        },
        {
          "internalType": "string",
          "name": "profileImageHash",
          "type": "string"
        },
        {
          "internalType": "string",
          "name": "payslipHash",
          "type": "string"
        },
        {
          "internalType": "bool",
          "name": "isVerified",
          "type": "bool"
        },
        {
          "internalType": "bool",
          "name": "isActive",
          "type": "bool"
        },
        {
          "internalType": "uint256",
          "name": "createdAt",
          "type": "uint256"
        },
        {
          "internalType": "address",
          "name": "userAddress",
          "type": "address"
        }
      ],
      "stateMutability": "view",
      "type": "function"
    },
    {
      "inputs": [],
      "name": "getTotalUsers",
      "outputs": [
        {
          "internalType": "uint256",
          "name": "",
          "type": "uint256"
        }
      ],
      "stateMutability": "view",
      "type": "function"
    },
    {
      "inputs": [
        {
          "internalType": "uint256",
          "name": "_start",
          "type": "uint256"
        },
        {
          "internalType": "uint256",
          "name": "_limit",
          "type": "uint256"
        }
      ],
      "name": "getUsers",
      "outputs": [
        {
          "internalType": "address[]",
          "name": "",
          "type": "address[]"
        }
      ],
      "stateMutability": "view",
      "type": "function"
    },
    {
      "inputs": [
        {
          "internalType": "address",
          "name": "",
          "type": "address"
        }
      ],
      "name": "isRegistered",
      "outputs": [
        {
          "internalType": "bool",
          "name": "",
          "type": "bool"
        }
      ],
      "stateMutability": "view",
      "type": "function"
    },
    {
      "inputs": [
        {
          "internalType": "address",
          "name": "",
          "type": "address"
        }
      ],
      "name": "profiles",
      "outputs": [
        {
          "internalType": "string",
          "name": "name",
          "type": "string"
        },
        {
          "internalType": "uint256",
          "name": "age",
          "type": "uint256"
        },
        {
          "internalType": "string",
          "name": "gender",
          "type": "string"
        },
        {
          "internalType": "string",
          "name": "bio",
          "type": "string"
        },
        {
          "internalType": "uint256",
          "name": "monthlySalary",
          "type": "uint256"
        },
        {
          "internalType": "string",
          "name": "profileImageHash",
          "type": "string"
        },
        {
          "internalType": "string",
          "name": "payslipHash",
          "type": "string"
        },
        {
          "internalType": "bool",
          "name": "isVerified",
          "type": "bool"
        },
        {
          "internalType": "bool",
          "name": "isActive",
          "type": "bool"
        },
        {
          "internalType": "uint256",
          "name": "createdAt",
          "type": "uint256"
        },
        {
          "internalType": "address",
          "name": "userAddress",
          "type": "address"
        }
      ],
      "stateMutability": "view",
      "type": "function"
    },
    {
      "inputs": [],
      "name": "reactivateProfile",
      "outputs": [],
      "stateMutability": "nonpayable",
      "type": "function"
    },
    {
      "inputs": [
        {
          "internalType": "uint256",
          "name": "",
          "type": "uint256"
        }
      ],
      "name": "registeredUsers",
      "outputs": [
        {
          "internalType": "address",
          "name": "",
          "type": "address"
        }
      ],
      "stateMutability": "view",
      "type": "function"
    },
    {
      "inputs": [
        {
          "internalType": "string",
          "name": "_bio",
          "type": "string"
        },
        {
          "internalType": "string[]",
          "name": "_interests",
          "type": "string[]"
        },
        {
          "internalType": "string",
          "name": "_profileImageHash",
          "type": "string"
        }
      ],
      "name": "updateProfile",
      "outputs": [],
      "stateMutability": "nonpayable",
      "type": "function"
    },
    {
      "inputs": [
        {
          "internalType": "address",
          "name": "_user",
          "type": "address"
        }
      ],
      "name": "verifyProfile",
      "outputs": [],
      "stateMutability": "nonpayable",
      "type": "function"
    }
  ],
  "bytecode": "0x608060405234801561001057600080fd5b50611e11806100206000396000f3fe608060405234801561001057600080fd5b50600436106100ea5760003560e01c806387d3701a1161008c578063c3c5a54711610066578063c3c5a547146101e9578063dfaef6591461021c578063e2a412831461022f578063e91c3b9e1461025b57600080fd5b806387d3701a1461019b5780639be572f6146101ae578063bbe15627146101bf57600080fd5b806332c4227a116100c857806332c4227a1461013557806345982a66146101485780637259e0f81461016857806375db77211461019357600080fd5b80630f53a470146100ef57806320a17bca1461012357806321527e501461012d575b600080fd5b6101026100fd36600461161d565b61026e565b60405161011a9c9b9a999897969594939291906116eb565b60405180910390f35b61012b610789565b005b6101026107d5565b61012b61014336600461190d565b61084b565b61015b610156366004611a17565b610c62565b60405161011a9190611a39565b61017b610176366004611a86565b610da2565b6040516001600160a01b03909116815260200161011a565b61012b610dcc565b61012b6101a9366004611a9f565b610e1c565b60025460405190815260200161011a565b6101d26101cd36600461161d565b610fab565b60405161011a9b9a99989796959493929190611b27565b61020c6101f736600461161d565b60016020526000908152604090205460ff1681565b604051901515815260200161011a565b61012b61022a36600461161d565b6112b5565b61020c61023d36600461161d565b6001600160a01b031660009081526001602052604090205460ff1690565b61015b610269366004611a17565b611350565b6001600160a01b03811660009081526001602052604081205460609190829081908190849082908190839081908190819060ff166102c75760405162461bcd60e51b81526004016102be90611bd8565b60405180910390fd5b6001600160a01b038d16600090815260208190526040808220815161018081019092528054829082906102f990611c05565b80601f016020809104026020016040519081016040528092919081815260200182805461032590611c05565b80156103725780601f1061034757610100808354040283529160200191610372565b820191906000526020600020905b81548152906001019060200180831161035557829003601f168201915b505050505081526020016001820154815260200160028201805461039590611c05565b80601f01602080910402602001604051908101604052809291908181526020018280546103c190611c05565b801561040e5780601f106103e35761010080835404028352916020019161040e565b820191906000526020600020905b8154815290600101906020018083116103f157829003601f168201915b5050505050815260200160038201805461042790611c05565b80601f016020809104026020016040519081016040528092919081815260200182805461045390611c05565b80156104a05780601f10610475576101008083540402835291602001916104a0565b820191906000526020600020905b81548152906001019060200180831161048357829003601f168201915b5050505050815260200160048201805480602002602001604051908101604052809291908181526020016000905b8282101561057a5783829060005260206000200180546104ed90611c05565b80601f016020809104026020016040519081016040528092919081815260200182805461051990611c05565b80156105665780601f1061053b57610100808354040283529160200191610566565b820191906000526020600020905b81548152906001019060200180831161054957829003601f168201915b5050505050815260200190600101906104ce565b5050505081526020016005820154815260200160068201805461059c90611c05565b80601f01602080910402602001604051908101604052809291908181526020018280546105c890611c05565b80156106155780601f106105ea57610100808354040283529160200191610615565b820191906000526020600020905b8154815290600101906020018083116105f857829003601f168201915b5050505050815260200160078201805461062e90611c05565b80601f016020809104026020016040519081016040528092919081815260200182805461065a90611c05565b80156106a75780601f1061067c576101008083540402835291602001916106a7565b820191906000526020600020905b81548152906001019060200180831161068a57829003601f168201915b505050505081526020016008820160009054906101000a900460ff161515151581526020016008820160019054906101000a900460ff1615151515815260200160098201548152602001600a820160009054906101000a90046001600160a01b03166001600160a01b03166001600160a01b0316815250509050806000015181602001518260400151836060015184608001518560a001518660c001518760e001518861010001518961012001518a61014001518b61016001519c509c509c509c509c509c509c509c509c509c509c509c505091939597999b5091939597999b565b3360009081526001602052604090205460ff166107b85760405162461bcd60e51b81526004016102be90611bd8565b336000908152602081905260409020600801805461ff0019169055565b3360009081526001602052604081205460609190829081908190849082908190839081908190819060ff1661081c5760405162461bcd60e51b81526004016102be90611bd8565b6108253361026e565b9b509b509b509b509b509b509b509b509b509b509b509b50909192939495969798999a9b565b3360009081526001602052604090205460ff16156108ab5760405162461bcd60e51b815260206004820152601760248201527f5573657220616c7265616479207265676973746572656400000000000000000060448201526064016102be565b60008851116108f35760405162461bcd60e51b81526020600482015260146024820152734e616d652063616e6e6f7420626520656d70747960601b60448201526064016102be565b60128710158015610905575060648711155b6109515760405162461bcd60e51b815260206004820152601e60248201527f416765206d757374206265206265747765656e20313820616e6420313030000060448201526064016102be565b600086511161099b5760405162461bcd60e51b815260206004820152601660248201527547656e6465722063616e6e6f7420626520656d70747960501b60448201526064016102be565b60008551116109e25760405162461bcd60e51b815260206004820152601360248201527242696f2063616e6e6f7420626520656d70747960681b60448201526064016102be565b6000845111610a335760405162461bcd60e51b815260206004820152601e60248201527f4174206c65617374206f6e6520696e746572657374207265717569726564000060448201526064016102be565b60008311610a915760405162461bcd60e51b815260206004820152602560248201527f4d6f6e74686c792073616c617279206d75737420626520677265617465722074604482015264068616e20360dc1b60648201526084016102be565b6000825111610adb5760405162461bcd60e51b8152602060048201526016602482015275141c9bd99a5b19481a5b5859d9481c995c5d5a5c995960521b60448201526064016102be565b6000815111610b1f5760405162461bcd60e51b815260206004820152601060248201526f14185e5cdb1a5c081c995c5d5a5c995960821b60448201526064016102be565b33600090815260208190526040902080610b398a82611c8e565b506001810188905560028101610b4f8882611c8e565b5060038101610b5e8782611c8e565b508451610b749060048301906020880190611558565b506005810184905560068101610b8a8482611c8e565b5060078101610b998382611c8e565b5060088101805461ffff19166101001790554260098201819055600a820180546001600160a01b0319908116339081179092556000828152600160208190526040808320805460ff1916831790556002805492830181559092527f405787fa12a823e0f2b7631cc41b3ba8828b3321ca811111fa75cd3aa3bb5ace01805490921683179091555190917f25dbccf9f713a2b16ed5d635585b4778d0d7e66b7b631871e668a694131e5fad91610c4f918d91611d4e565b60405180910390a2505050505050505050565b6002546060908310610cb25760405162461bcd60e51b8152602060048201526019602482015278537461727420696e646578206f7574206f6620626f756e647360381b60448201526064016102be565b6000610cbe8385611d86565b600254909150811115610cd057506002545b6000610cdc8583611d99565b67ffffffffffffffff811115610cf457610cf46117b7565b604051908082528060200260200182016040528015610d1d578160200160208202803683370190505b509050845b82811015610d975760028181548110610d3d57610d3d611dac565b6000918252602090912001546001600160a01b031682610d5d8884611d99565b81518110610d6d57610d6d611dac565b6001600160a01b039092166020928302919091019091015280610d8f81611dc2565b915050610d22565b509150505b92915050565b60028181548110610db257600080fd5b6000918252602090912001546001600160a01b0316905081565b3360009081526001602052604090205460ff16610dfb5760405162461bcd60e51b81526004016102be90611bd8565b336000908152602081905260409020600801805461ff001916610100179055565b3360009081526001602052604090205460ff16610e4b5760405162461bcd60e51b81526004016102be90611bd8565b6000835111610e925760405162461bcd60e51b815260206004820152601360248201527242696f2063616e6e6f7420626520656d70747960681b60448201526064016102be565b6000825111610ee35760405162461bcd60e51b815260206004820152601e60248201527f4174206c65617374206f6e6520696e746572657374207265717569726564000060448201526064016102be565b6000815111610f2d5760405162461bcd60e51b8152602060048201526016602482015275141c9bd99a5b19481a5b5859d9481c995c5d5a5c995960521b60448201526064016102be565b33600090815260208190526040902060038101610f4a8582611c8e565b508251610f609060048301906020860190611558565b5060068101610f6f8382611c8e565b5060405142815233907f03754aecf8745159503d95ad9d4b5e5ec503371279ddc036d4ac93cd953f9de29060200160405180910390a250505050565b600060208190529081526040902080548190610fc690611c05565b80601f0160208091040260200160405190810160405280929190818152602001828054610ff290611c05565b801561103f5780601f106110145761010080835404028352916020019161103f565b820191906000526020600020905b81548152906001019060200180831161102257829003601f168201915b50505050509080600101549080600201805461105a90611c05565b80601f016020809104026020016040519081016040528092919081815260200182805461108690611c05565b80156110d35780601f106110a8576101008083540402835291602001916110d3565b820191906000526020600020905b8154815290600101906020018083116110b657829003601f168201915b5050505050908060030180546110e890611c05565b80601f016020809104026020016040519081016040528092919081815260200182805461111490611c05565b80156111615780601f1061113657610100808354040283529160200191611161565b820191906000526020600020905b81548152906001019060200180831161114457829003601f168201915b50505050509080600501549080600601805461117c90611c05565b80601f01602080910402602001604051908101604052809291908181526020018280546111a890611c05565b80156111f55780601f106111ca576101008083540402835291602001916111f5565b820191906000526020600020905b8154815290600101906020018083116111d857829003601f168201915b50505050509080600701805461120a90611c05565b80601f016020809104026020016040519081016040528092919081815260200182805461123690611c05565b80156112835780601f1061125857610100808354040283529160200191611283565b820191906000526020600020905b81548152906001019060200180831161126657829003601f168201915b50505060088401546009850154600a90950154939460ff8083169561010090930416935091506001600160a01b03168b565b6001600160a01b03811660009081526001602052604090205460ff166112ed5760405162461bcd60e51b81526004016102be90611bd8565b6001600160a01b03811660008181526020819052604090819020600801805460ff19166001179055517fc0717e006bb633cb129f18453a1dd090cb674eeb4e794327428cbc35919757d9906113459042815260200190565b60405180910390a250565b60025460609083106113a05760405162461bcd60e51b8152602060048201526019602482015278537461727420696e646578206f7574206f6620626f756e647360381b60448201526064016102be565b6000835b600254811080156113b457508382105b1561142557600080600283815481106113cf576113cf611dac565b60009182526020808320909101546001600160a01b0316835282019290925260400190206008015460ff6101009091041615611413578161140f81611dc2565b9250505b8061141d81611dc2565b9150506113a4565b5060008167ffffffffffffffff811115611441576114416117b7565b60405190808252806020026020018201604052801561146a578160200160208202803683370190505b5090506000855b6002548110801561148157508582105b1561154d576000806002838154811061149c5761149c611dac565b60009182526020808320909101546001600160a01b0316835282019290925260400190206008015460ff610100909104161561153b57600281815481106114e5576114e5611dac565b9060005260206000200160009054906101000a90046001600160a01b031683838151811061151557611515611dac565b6001600160a01b03909216602092830291909101909101528161153781611dc2565b9250505b8061154581611dc2565b915050611471565b509095945050505050565b82805482825590600052602060002090810192821561159e579160200282015b8281111561159e578251829061158e9082611c8e565b5091602001919060010190611578565b506115aa9291506115ae565b5090565b808211156115aa5760006115c282826115cb565b506001016115ae565b5080546115d790611c05565b6000825580601f106115e7575050565b601f0160209004906000526020600020908101906116059190611608565b50565b5b808211156115aa5760008155600101611609565b60006020828403121561162f57600080fd5b81356001600160a01b038116811461164657600080fd5b9392505050565b6000815180845260005b8181101561167357602081850181015186830182015201611657565b506000602082860101526020601f19601f83011685010191505092915050565b600082825180855260208086019550808260051b84010181860160005b848110156116de57601f198684030189526116cc83835161164d565b988401989250908301906001016116b0565b5090979650505050505050565b6101808152600061170061018083018f61164d565b8d60208401528281036040840152611718818e61164d565b9050828103606084015261172c818d61164d565b90508281036080840152611740818c611693565b90508960a084015282810360c084015261175a818a61164d565b905082810360e084015261176e818961164d565b91505061178061010083018715159052565b841515610120830152836101408301526117a66101608301846001600160a01b03169052565b9d9c50505050505050505050505050565b634e487b7160e01b600052604160045260246000fd5b604051601f8201601f1916810167ffffffffffffffff811182821017156117f6576117f66117b7565b604052919050565b600082601f83011261180f57600080fd5b813567ffffffffffffffff811115611829576118296117b7565b61183c601f8201601f19166020016117cd565b81815284602083860101111561185157600080fd5b816020850160208301376000918101602001919091529392505050565b600082601f83011261187f57600080fd5b8135602067ffffffffffffffff8083111561189c5761189c6117b7565b8260051b6118ab8382016117cd565b93845285810183019383810190888611156118c557600080fd5b84880192505b85831015611901578235848111156118e35760008081fd5b6118f18a87838c01016117fe565b83525091840191908401906118cb565b98975050505050505050565b600080600080600080600080610100898b03121561192a57600080fd5b883567ffffffffffffffff8082111561194257600080fd5b61194e8c838d016117fe565b995060208b0135985060408b013591508082111561196b57600080fd5b6119778c838d016117fe565b975060608b013591508082111561198d57600080fd5b6119998c838d016117fe565b965060808b01359150808211156119af57600080fd5b6119bb8c838d0161186e565b955060a08b0135945060c08b01359150808211156119d857600080fd5b6119e48c838d016117fe565b935060e08b01359150808211156119fa57600080fd5b50611a078b828c016117fe565b9150509295985092959890939650565b60008060408385031215611a2a57600080fd5b50508035926020909101359150565b6020808252825182820181905260009190848201906040850190845b81811015611a7a5783516001600160a01b031683529284019291840191600101611a55565b50909695505050505050565b600060208284031215611a9857600080fd5b5035919050565b600080600060608486031215611ab457600080fd5b833567ffffffffffffffff80821115611acc57600080fd5b611ad8878388016117fe565b94506020860135915080821115611aee57600080fd5b611afa8783880161186e565b93506040860135915080821115611b1057600080fd5b50611b1d868287016117fe565b9150509250925092565b6000610160808352611b3b8184018f61164d565b90508c60208401528281036040840152611b55818d61164d565b90508281036060840152611b69818c61164d565b905089608084015282810360a0840152611b83818a61164d565b905082810360c0840152611b97818961164d565b91505085151560e083015284151561010083015283610120830152611bc86101408301846001600160a01b03169052565b9c9b505050505050505050505050565b602080825260139082015272155cd95c881b9bdd081c9959da5cdd195c9959606a1b604082015260600190565b600181811c90821680611c1957607f821691505b602082108103611c3957634e487b7160e01b600052602260045260246000fd5b50919050565b601f821115611c8957600081815260208120601f850160051c81016020861015611c665750805b601f850160051c820191505b81811015611c8557828155600101611c72565b5050505b505050565b815167ffffffffffffffff811115611ca857611ca86117b7565b611cbc81611cb68454611c05565b84611c3f565b602080601f831160018114611cf15760008415611cd95750858301515b600019600386901b1c1916600185901b178555611c85565b600085815260208120601f198616915b82811015611d2057888601518255948401946001909101908401611d01565b5085821015611d3e5787850151600019600388901b60f8161c191681555b5050505050600190811b01905550565b604081526000611d61604083018561164d565b90508260208301529392505050565b634e487b7160e01b600052601160045260246000fd5b80820180821115610d9c57610d9c611d70565b81810381811115610d9c57610d9c611d70565b634e487b7160e01b600052603260045260246000fd5b600060018201611dd457611dd4611d70565b506001019056fea2646970667358221220c4ad538cacf97390406496fcbe950cffdeaa89ffc997bf601c59b861dbc0599664736f6c63430008130033",
  "linkReferences": {},
  "deployedLinkReferences": {}
}